S0260000436F7079206F6620436F7079206F662053544B333230305F746F7563685F332E733337A3
S11300000010002099030000C5030000C503000090
S1130010C5030000C5030000C5030000C5030000BC
S1130020C5030000C5030000C5030000C5030000AC
S1130030C5030000C4030000C5030000353D0000F3
S1130040012D0000C5030000C5030000C503000026
S1130050C5030000C5030000C5030000C50300007C
S1130060C5030000C5030000C5030000C50300006C
S1130070C5030000C5030000C5030000C50300005C
S1130080C5030000C5030000C503000010B5064CFD
S11300902378002B07D1054B002B02D0044800E045
S11300A000BF0123237010BD800200200000000067
S11300B0186B0000044B10B5002B03D0034904480F
S11300C000E000BF10BDC046000000008402002014
S11300D0186B0000164B002B00D1144B9D46402298
S11300E092029A1A924600218B460F461348144AEC
S11300F0121A04F07CFE0F4B002B00D098470E4BD5
S1130100002B00D098470020002104000D000D486A
S1130110002802D00C4800E000BF04F01BFE2000C1
S1130120290003F039FE04F0FFFDC046000008007A
S113013000100020000000000000000080020020E9
S1130140D00A0020000000000000000080B582B04A
S113015000AF02003960FB1D1A70FB1D1B78002BD9
S11301601FD0FB1D1B78012B19D0FB1D1B78022B04
S113017013D0FB1D1B78032B0DD0FB1D1B78042B08
S113018007D0FB1D1B78052B01D13F230AE0002378
S113019008E0134B06E0134B04E0134B02E0134B4F
S11301A000E0134B3A6813410122134006D1F723B0
S11301B09A00104B1100180001F0F4FD01223B6875
S11301C09A4010000C49FB1D1A781300DB009B18A1
S11301D09B00CB1814331860C046BD4602B080BDE6
S11301E0F0FF0000FF010000FFFF0000F8790000AD
S11301F07FF70000CC5D00000060004080B582B055
S113020000AF02003960FB1D1A70FB1D1B78002B28
S11302101FD0FB1D1B78012B19D0FB1D1B78022B53
S113022013D0FB1D1B78032B0DD0FB1D1B78042B57
S113023007D0FB1D1B78052B01D13F230AE00023C7
S113024008E0134B06E0134B04E0134B02E0134B9E
S113025000E0134B3A6813410122134005D1114ABF
S1130260114B1100180001F09DFD01223B689A40DA
S113027010000E49FB1D1A781300DB009B189B002D
S1130280CB1818331860C046BD4602B080BDC046C6
S1130290F0FF0000FF010000FFFF0000F8790000FC
S11302A07FF7000026040000CC5D000000600040E1
S11302B080B582B000AF134B0121180002F004F99D
S11302C0114B0121180002F0FFF800237B6010E0BD
S11302D00E4B7A68D200D05C0C4A7B68DB00D318E2
S11302E0043319680023042202F0B6FF7B6801334B
S11302F07B607B68012BEBDD00231800BD4602B058
S113030080BDC0464081040000720400305E0000DD
S113031080B582B000AF78607B68002B11DB7B680E
S1130320012B0EDC0A4B7A68D200D05C084A7B6849
S1130330DB00D31804331B681900FFF707FF002301
S113034001E001235B421800BD4602B080BDC046F7
S1130350305E000080B582B000AF78607B68002B0F
S113036011DB7B68012B0EDC0A4B7A68D200D05C6F
S1130370084A7B68DB00D31804331B681900FFF7B5
S11303803DFF002301E001235B421800BD4602B09B
S113039080BDC046305E0000064880470649074AD3
S11303A0074B9B1A03DD043BC858D050FBDCFFF716
S11303B091FE0000DD040000246B0000000000201A
S11303C028020020FEE7C04680B582B000AF00F0EE
S11303D01FF803007B60084B5B680F2213407A68A8
S11303E0DA4013007B60054B7A681A607B6818005A
S11303F0BD4602B080BDC04600800C40080000200D
S113040080B500AF014B1800BD4680BD00366E01BB
S113041080B582B000AF294BDA6AF0239B01134008
S11304208022520193420CD080229201934204D044
S113043080221201934208D00BE0214B1B687B60A1
S113044036E080231B027B6032E01E4B1B687B601E
S11304502EE01A4BDA68E023DB001340802292007E
S1130460934218D080229200934206D8002B18D0D1
S113047080225200934211D016E0C022920093428F
S113048006D08022D20093420ED10F4B7B600EE047
S11304900E4B7B600BE00E4B7B6008E00D4B7B60EA
S11304A005E00D4B7B6002E000237B60C046C04644
S11304B07B681800BD4602B080BDC04600800C4079
S11304C00400002000000020406F4001809FD50000
S11304D0C0D8A70040B56400804F120080B500AFBB
S11304E0024B034A9A60C046BD4680BD00ED00E061
S11304F00000000080B500AF80231B021800BD4639
S113050080BD80B500AFFA239B001800BD4680BDB6
S113051080B500AF024B1B681800BD4680BDC046C5
S11305200400002080B582B000AF114B7B60114BFA
S11305301B7801225340DBB2002B14D00D4B012257
S11305401A700CE07B681B68984703003B603B68AB
S1130550002B01D03B6807E07B6804337B607B6839
S11305601B68002BEED100231800BD4602B080BDED
S11305700C000020C802002080B584B000AF786071
S11305803960104B1B7801225340DBB2002B02D0A0
S11305900D4BFB6011E07B68002B0CDC7B682C228C
S11305A05A430A4BD1183B682C22180004F016FC5D
S11305B00023FB6001E0064BFB60FB681800BD46AE
S11305C004B080BDC8020020050011809C020020F8
S11305D00200118080B584B000AF7860124B1B78A4
S11305E001225340DBB2002B02D0104BFB6016E01B
S11305F00F4B1B68002B10DC0D4B1B68591C0C4A5D
S113060011602C225A430B4BD31879682C22180002
S113061004F0E4FB0023FB6001E0074BFB60FB6894
S11306201800BD4604B080BDC8020020050011803A
S1130630CC0200209C0200200100118080B58CB007
S113064000AF00F0BDFA00F055FA00F0D5FA00232F
S113065000220F21022000F0E1FA002300220721EA
S1130660032000F0DBFA002300220B21042000F019
S1130670D5FA002300220821002000F0CFFA00233D
S113068000220A21002000F0C9FA002300220A21D6
S1130690042000F0C3FA40220A21042000F00AFBDF
S11306A00300FB62FB6A002B01D0FB6A35E03B00D0
S11306B01C4A1A603B0001221A743B0000225A743F
S11306C03B0080225A603B008022DA603B005A687B
S11306D03B009A603B00144A5A613B00134A9A61FA
S11306E03B00134ADA613B00124A1A623B00124A89
S11306F05A623B00114A9A623B001800FFF76AFFF6
S11307000300FB62FB6A002B06D13B0001211800A9
S113071000F025F800F044F8FB6A1800BD460CB060
S113072080BDC046405E00005F070000ED0700008A
S113073055080000CD0800006D08000041070000C6
S113074080B584B000AF78600023FB6000F038FA15
S113075000F0D0F9FB681800BD4604B080BD80B538
S113076082B000AF78600A00FB1C1A70FB1C1B7877
S1130770002B08D00821002000F076FA0A2100207E
S113078000F072FA07E00A21002000F080FA082144
S1130790002000F07CFA00231800BD4602B080BDA2
S11307A080B582B000AF0B21042000F05DFA062072
S11307B000F012FA0C4B1B7804221343DBB29AB2FA
S11307C0BB1D1A80BB1D0221180000F0BFF90220D6
S11307D000F002FA0B21042000F059FA002318005B
S11307E0BD4602B080BDC046D002002080B586B0B0
S11307F000AFF860B9607A603B60BB68DA087B6878
S113080053437B61BB68802B01D00E4B16E00E4B2B
S11308101A687B69D2180D4B9A4204D93B680022AE
S11308201A600B4B0AE0084B1A683B681A60064BC7
S11308301A687B69D218044B1A6000231800BD465D
S113084006B080BD02001180140000205403002073
S11308500100118080B582B000AF78603960024B2E
S11308601800BD4602B080BD0400118080B588B078
S113087000AFF860B9607A603B60BB68FB61FB68FD
S11308801B7C012B04D11B23FB1800221A7003E0EC
S11308901B23FB18FF221A7000237B610DE01B232E
S11308A0FB181978FB691022180004F0A0FAFB6900
S11308B01033FB617B6901337B617A693B689A423F
S11308C0EDD300231800BD4608B080BD80B588B0C4
S11308D000AFF860B9607A603B60BB68BB61BB6A1B
S11308E00133BB620B21042000F0BEF9062000F0A6
S11308F073F9BB6A9BB21B029BB2012213439AB2E7
S113090016217B181A807B180221180000F01EF9AA
S11309100023FB612BE0BB691021180000F016F9DD
S1130920BB691033BB61FB6A013BFA699A4205D18A
S11309301623FB18012252421A800FE0BB6A9AB2B6
S1130940FB699BB2D3189BB201339BB21B029BB2CF
S1130950FF2213439AB21623FB181A801623FB189E
S11309600221180000F0F2F8FB690133FB61FA6917
S1130970FB6A9A42CFD3022000F02EF90B21042007
S113098000F085F900231800BD4608B080BD0000C2
S113099080B582B000AF02003960FB1D1A70FB1DE8
S11309A01B78002B1FD0FB1D1B78012B19D0FB1DBE
S11309B01B78022B13D0FB1D1B78032B0DD0FB1DC2
S11309C01B78042B07D0FB1D1B78052B01D13F237B
S11309D00AE0002308E0134B06E0134B04E0134B3A
S11309E002E0134B00E0134B3A6813410122134019
S11309F006D1F7239A00104B1100180001F0D2F928
S1130A0001223B689A4010000C49FB1D1A78130020
S1130A10DB009B189B00CB1814331860C046BD46FE
S1130A2002B080BDF0FF0000FF010000FFFF0000E6
S1130A30F87900007FF70000585E00000060004075
S1130A4080B582B000AF02003960FB1D1A70FB1D37
S1130A501B78002B1FD0FB1D1B78012B19D0FB1D0D
S1130A601B78022B13D0FB1D1B78032B0DD0FB1D11
S1130A701B78042B07D0FB1D1B78052B01D13F23CA
S1130A800AE0002308E0134B06E0134B04E0134B89
S1130A9002E0134B00E0134B3A6813410122134068
S1130AA005D1114A114B1100180001F07BF9012204
S1130AB03B689A4010000E49FB1D1A781300DB00B6
S1130AC09B189B00CB1810331860C046BD4602B07B
S1130AD080BDC046F0FF0000FF010000FFFF0000E2
S1130AE0F87900007FF700000B040000585E000056
S1130AF00060004090B589B000AF0023FB613B1D4E
S1130B000D4A13CA13C313CA13C30C4B0121180093
S1130B1001F0DAFC3B1D0A4A9A603B1D094A1900A0
S1130B20100002F0C9FE074B074A5A65FB6918001A
S1130B30BD4609B090BDC046BC5E00000032040052
S1130B40E0C8100000C400400A03000080B584B06F
S1130B5000AF786039600023FB6021E03B68012B23
S1130B6003D07B68012213400DD07B681B78134AA5
S1130B701900100002F058FF3B68013B3B607B68A2
S1130B8001337B600CE07B681B880C4A1900100061
S1130B9002F05FFF3B68023B3B607B6802337B6093
S1130BA03B68002BDAD1C046044B1B69202213405A
S1130BB0FAD0FB681800BD4604B080BD00C40040F4
S1130BC080B582B000AF00237B6000F081FE7B68BB
S1130BD01800BD4602B080BD80B584B000AF786017
S1130BE00023FB607B68180000F06CFFFB681800B2
S1130BF0BD4604B080BD000080B582B000AF0023C4
S1130C007B60054B0121180001F05EFC7B68180035
S1130C10BD4602B080BDC0460072040090B587B0E6
S1130C2000AFF860B9603B60FB1D1A7000237B6164
S1130C30FB1D1B78002B0FD113217B1804221A7083
S1130C40C046FB68D8B23C687B181A78B9682300A0
S1130C5002F002FB7B6900E0024B1800BD4607B0BE
S1130C6090BDC0460100138080B584B000AF7860A9
S1130C7039600023FB607B68DBB23A68110018001E
S1130C80FFF7DEFEFB681800BD4604B080BD80B5EA
S1130C9084B000AF786039600023FB607B68DBB20E
S1130CA03A6811001800FFF773FEFB681800BD4690
S1130CB004B080BD80B588B000AFF860B9607A60D8
S1130CC00023FB61A0239B03BB6101237B61154BC4
S1130CD00121180001F0F8FB7A69BB6919000220B0
S1130CE002F09AFB104B9B68104A1A400E4B80216D
S1130CF089000A439A600C4B9A680B4B04210A43FF
S1130D009A60FB68D8B2B9680023042202F0A4FAFE
S1130D107B68180000F020F8FB691800BD4608B095
S1130D2080BDC0460042040000C00C40FFF8FFFF35
S1130D3080B582B000AF7860064B0121180001F045
S1130D40C3FB7B680A21180001F076FDC046BD464E
S1130D5002B080BDD0233E0090B585B000AF78606E
S1130D600C243B191C4A1188198092789A701B4BE9
S1130D701800FFF7DDFF1A4B0221180001F0C0FA3A
S1130D80174B0121180001F09FFB3B1900221A7038
S1130D903B1900225A703B1901229A703B19180022
S1130DA002F004FC0E4B180001F0E8FB0300796824
S1130DB0180003F00FFF0300013B1B021B0A19007C
S1130DC0002002F099FB02F017FC012002F0C2FBA4
S1130DD0C046BD4605B090BDD45E000002001E00B2
S1130DE08006120080B582B000AF7860002318003E
S1130DF0BD4602B080BD80B582B000AF7860FEE72A
S1130E0080B582B000AF786039603B68802292017F
S1130E105A6000231800BD4602B080BD80B582B080
S1130E2000AF786001231800BD4602B080BD80B5D4
S1130E3084B000AFF860B9607A6000231800BD4642
S1130E4004B080BD80B586B000AFF860B9607A6048
S1130E5000237B610FE000F08FF803003B613B69E6
S1130E6001330ED0BB685A1CBA603A69D2B21A7008
S1130E707B6901337B617B685A1E7A60002BEAD15F
S1130E8000E0C0467B69002B02DC01235B4200E0EA
S1130E907B691800BD4606B080BD000080B584B0F3
S1130EA000AF78600A4B1B68002B02D1084B094A3B
S1130EB01A60074B1B68FB60054B1A687B68D218E5
S1130EC0034B1A60FB681800BD4604B080BDC046E1
S1130ED054030020D00A002080B586B000AFF8602B
S1130EE0B9607A6000237B6109E0BB685A1CBA6070
S1130EF01B78180000F048F87B6901337B617A693C
S1130F007B689A42F1DB7B681800BD4606B080BD61
S1130F1080B58EB000AF0823FB1819000020FFF73E
S1130F202BFB03007B637B6B002B1BD13B0000225C
S1130F301A603B0000221A713B0001225A710C4ACC
S1130F403B001100180000F03DF803007B637B6B4D
S1130F50002B07D1074B1B6898680023022200214D
S1130F6003F068FF7B6B1800BD460EB080BDC04621
S1130F70580300205000002080B500AF01235B42DD
S1130F801800BD4680BD000080B582B000AF0200ED
S1130F90FB1D1A700A4B1B68002B0AD0084B1A68F9
S1130FA0FB1D1B781900100000F0F2F8FB1D1B78E4
S1130FB001E001235B421800BD4602B080BDC0467B
S1130FC05803002090B587B000AF786039600023E3
S1130FD07B6100233B6116E0694A3B695521582037
S1130FE04343D3185B181B7801225340DBB2002B18
S1130FF006D03B6958225A43614BD3187B6105E004
S11310003B6901333B613B69002BE5DD7B69002BC8
S113101001D15C4BAFE07B681A687B69043319002B
S11310201000FFF7A9FA0300BB60BB68002B01D0D6
S1131030BB68A0E07B695B7D002B21D17B69DC6907
S11310407B69181D7B6999687B693C330822A0473A
S11310500300BB60BB68002B01D0BB688BE07B69DD
S11310609C6A7B69181D7B69D96B7B699A68082324
S1131070A0470300BB60BB68002B04D0BB687AE0C8
S11310807B690022DA63404B3A691201D2587B69CA
S11310901B69DB089A4201D93C4B6CE03A4A3B6934
S11310A01B01D31804331C687B699B680621180054
S11310B003F090FD03009C4201D9344B5BE0324BBA
S11310C03A691201D2587B695A632F4A3B691B0162
S11310D0D31804331A687B691A632B4A3B691B01D2
S11310E0D31808331A687B691A64274A3B691B01C1
S11310F0D3180C331A687B695A647B681A687B6955
S11311001A607B6819797B69382299547B6859790C
S11311107B69392299540023FB600FE07B69196CC9
S11311207B691B6BFA685A437B69586CFB689B00AC
S1131130C3188A181A60FB680133FB607B695B6B18
S1131140FA689A42EAD37B694822002199547B6960
S11311504922002199547B694A22002199547B69D0
S1131160180000F08FF87B695522012199543B68DF
S11311707A691A6000231800BD4607B090BDC046C6
S11311805C03002005001280180000200200128079
S113119080B584B000AF78600A00FB1C1A707B68CD
S11311A0FB60FB6855229B5C01225340DBB2002BA1
S11311B001D0334B60E0FB685B7D002B04D1FB68FE
S11311C054220121995403E0FB68542202219954CA
S11311D0FB6838229B5C002B0FD0FB68DB6C002B78
S11311E017D1FB681A6DFB685B6B013B9A4210D107
S11311F0FB685422002199540BE0FB68DB6C002B44
S113120007D1FB681B6D002B03D1FB68542200211E
S11312109954FB1C1B780C2B0DD1FB68180000F0B3
S113122031F8FB68542200219954FB68180000F03F
S113123091FA030020E0FB6839229B5C002B08D064
S1131240FB1C1B780A2B04D1FB680D21180000F04D
S11312507FF8FB1C1A78FB681100180000F078F87E
S1131260FB6854229B5C032B05D0FB68180000F03C
S113127071FA030000E000231800BD4604B080BDED
S11312800600128080B582B000AF78607B685B6C2A
S1131290002B14D07B68186C7B685A6B7B681B6BC3
S11312A053431A00002103F0A2FD7B680022DA6494
S11312B07B6800221A657B68542200219954C04639
S11312C0BD4602B080BD000080B584B000AF786038
S11312D00023FB6014E07B685A6CFB689B00D31806
S11312E018687B685A6CFB6801339B00D318196833
S11312F07B681B6B1A0003F071FDFB680133FB6014
S11313007B685B6B013BFA689A42E4D37B685A6C56
S11313107B685B6B0D498C4663449B00D31818684B
S11313207B681B6B1A00002103F061FD7B680022BF
S1131330DA647B685B6B5A1E7B681A657B6854228F
S113134000219954C046BD4604B080BDFFFFFF3F55
S113135080B582B000AF786039603B680A2B08D052
S11313600D2B02D0082B27D03BE07B680022DA64E7
S113137082E07B681B6D5A1C7B681A657B680022BF
S1131380DA647B681A6D7B685B6B9A4200D272E008
S11313907B6838229B5C002B09D07B681800FFF720
S11313A093FF7B685B6B5A1E7B681A6563E07B68FE
S11313B01800FFF767FF5EE07B681B7D002B10D0F1
S11313C07B681B7D012B0CD07B684822FF2199543C
S11313D07B684922002199547B684A220021995450
S11313E04AE003F0DBFC02003B680133D3181B78AE
S11313F01A009723134001D120233B607B68DA6CE9
S11314007B681B6B9A4207D37B680022DA647B6893
S11314101B6D5A1C7B681A657B681A6D7B685B6B55
S11314209A4212D37B6838229B5C002B09D07B68DC
S11314301800FFF749FF7B685B6B5A1E7B681A65CF
S113144003E07B681800FFF71DFF3B68DAB27B6896
S1131450596C7B681B6D9B00CB1819687B68DB6C2F
S1131460CB18203AD2B21A707B68DB6C5A1C7B68AA
S1131470DA64C04600E0C046BD4602B080BD00004C
S1131480B0B592B002AF786039607B68DB6B7B6388
S11314900023BB633BE10023FB6377E07B685A6C6A
S11314A03B689B00D3181A68FB6BD2180F217B187A
S11314B012781A707B181A78BB6B64214B43D218CC
S11314C03323FB18A1498A5C1A707B681B7D002BAF
S11314D008D056DB022B54DC3322BB18BA1812781E
S11314E0D2431A70FA6B13005B009B185B00BB605D
S11314F0BB68BB623FE03323FB181B780122134017
S113150017D0BB6ADB101A007B6B9B181B785AB28E
S1131510BB6A07210B40012199400B005BB21343C6
S11315205AB2BB6ADB1019007B6B5B18D2B21A701B
S113153018E0BB6ADB101A007B6B9B181B785BB24C
S1131540BA6A07210A40012191400A0052B2D243EB
S113155052B213405AB2BB6ADB1019007B6B5B18A2
S1131560D2B21A703322BB18BA18127852081A7001
S1131570BB6A0133BB62BB680633BA6A9A42BADB00
S113158001E0734BDDE0FB6B0133FB637B681B6B9A
S1131590FA6B9A4282D37B681B7D013B012B38D8BE
S11315A0FA6B13005B009B185B007B627B6A07226B
S11315B01340BB61BB69002B1CD07B6ADB101A0093
S11315C07B6B9B181B785AB20121BB6999400B00B5
S11315D0DBB25B42DBB25BB213435AB27B6ADB1011
S11315E019007B6B5B18D2B21A707A6ABB69D31A82
S11315F008337B627B6ADB101A007B6B98187B686C
S11316009A687B6AD31ADB081A00FF2103F0EFFB08
S113161000E0C0467B681B7D022B6FD17B684822AB
S11316209B5CDB09DBB25AB27B6849215B5C9B1192
S11316305BB202210B405BB213435AB27B684A216E
S11316405B5C5B115BB204210B405BB213435AB287
S11316501723FB181A707B6B3B617B689B68DB0864
S1131660013B3B6247E00023FB620023FB611CE07B
S11316703B6A3A69D3181B781A00FB691A411300B4
S11316800122134003D11723FB181A7800E0072224
S1131690F9690B005B005B189A4013001A00FB6A9F
S11316A01343FB62FB690133FB61FB69072BDFDD3D
S11316B03A6A13005B009B181A003B699B18FA6A8C
S11316C0D2B21A70FB6A190A3A6A13005B009B18BB
S11316D001333A69D318CAB21A70FB6A190C3A6A10
S11316E013005B009B1802333A69D318CAB21A700C
S11316F03B6A013B3B623B6A002BB4DA7B68DB68E4
S1131700DB087A6BD3187B63BB6B0133BB63BB6BA6
S1131710072B00D8BFE67B685C6A7B68181D7B6872
S1131720D96B7B681A6B13005B009B185B001D0070
S11317303B68DB000822019200932B000022A047A3
S113174003001800BD4610B0B0BDC046D85E00000E
S11317500400128090B587B002AF78607B68542291
S11317609B5C012B00D174E0022B00D180E0002BA4
S113177000D07FE07B685B7D002B66D10023FB609B
S113178008E0FA687B6811001800FFF779FEFB682F
S11317900133FB607B685B6BFA689A42F1D37B6828
S11317A05B6BDA007B681B699A4250D27B681B7DB5
S11317B0012B0DD0022B15D0002B20D17B68D86BC8
S11317C07B689B68DB081A00002103F010FB18E01B
S11317D07B68D86B7B689B68DB081A00FF2103F0E9
S11317E006FB0EE07B68D86B7B689A6813005B008D
S11317F09B18DB081A00FF2103F0F9FA01E0204BE3
S113180039E07B685B6BDB00FB6018E07B685C6A3B
S11318107B68181D7B68D96B7B689A6801230193E8
S1131820FB68009313000022A0470300BB60BB6861
S1131830002B01D0BB681EE0FB680133FB607B68B2
S11318401B69FA689A42E1D301E00D4B13E0C046EC
S113185010E07B685B7D002B08D17B681A6D7B6888
S113186011001800FFF70CFE030004E0044B02E033
S1131870034B00E000231800BD4605B090BDC046F0
S11318800400128080B582B000AF0200FB1D1A7004
S1131890FB1D1B787F2B0AD8FB1D1B781A001F2306
S11318A01340054901229A40C0235B00CA50C04638
S11318B0BD4602B080BDC04600E100E080B500AF87
S11318C0024B5B681800BD4680BDC046000008405E
S11318D0B0B58AB000AF2723FB1800221A70262364
S11318E0FB1800221A702523FB1800221A702423E7
S11318F0FB1800221A702323FB1800221A703B00E5
S11319006A4A1188198092789A700023FB61002337
S1131910BB6100237B6100233B61654B1B6C04228C
S1131920134008D1634B0121180000F0CDFD27239B
S1131930FB1801221A700F257C195F4B180000F068
S1131940D1FE030023707B191B78032B03D02523BE
S1131950FB1801221A70564BDB6A4022134003D154
S11319602423FB1801221A70534B0321180000F0A2
S113197063FF524B180000F039FC0300BB60802366
S11319805B004E4A1900100000F0BAFC484B9B6DF6
S11319900122134008D1494B0121180000F094FDA5
S11319A02623FB1801221A7001F08AF803007B60D9
S11319B0434B1B68012213401BD0414B1B68FB6146
S11319C03F4B9B68BB613E4BDB687B613C4BDB69F7
S11319D03B613B4B00221A60394B0022DA61384BE1
S11319E007229A610C20FFF74DFF2323FB180122E5
S11319F01A703B0000229A703B00180001F0D6FDDB
S1131A0000F07CF87B68180001F068F82323FB18C9
S1131A101B78002B18D0BB68284A1900100000F06E
S1131A206FFC012001F0AAFD254BBA699A60244B92
S1131A307A69DA60224BFA691A60214B3A69DA61F1
S1131A40002001F09BFD02E0002001F083FD26232D
S1131A50FB181B78002B04D0184B0021180000F051
S1131A6033FD2523FB181B78002B07D00F23FB180D
S1131A701B78114A1900100000F0DEFE2423FB1825
S1131A801B78002B04D000220021012000F0AEFFBF
S1131A902723FB181B78002B04D0064B00211800C9
S1131AA000F012FDC046BD460AB0B0BDF8610000AA
S1131AB000800C40D0233E0002001E00800612006D
S1131AC00000084080B582B000AF78607B680A49A6
S1131AD0002B0CD0013B88221202003253430A68C7
S1131AE0D80AD20A5043800901D00138FDD8C04633
S1131AF0BD4602B080BDC0462800002080B584B039
S1131B0000AF0823BB60344B802252011A601CE0F2
S1131B1000F064F803007B60C04600F05FF8020048
S1131B207B689342F9D000F059F803007B602A4B9C
S1131B301B68180000F05AF800F050F802007B68A7
S1131B40D31A7B607B68002B06D1234B1B685B0098
S1131B50214A1360DCD100E0C0461F4B1B685A08C1
S1131B601D4B1A601C4B1B68FB6026E01A4B1A685D
S1131B70FB681A43184B1A6000F030F803007B60CE
S1131B80C04600F02BF802007B689342F9D000F0C5
S1131B9025F803007B60104B1B68180000F026F842
S1131BA000F01CF802007B68934206D0FB68DA431D
S1131BB0094B1B681A40084B1A60BB685A1EBA606E
S1131BC0002B05D0FB685B08FB60FB68002BCDD1C4
S1131BD0C046BD4604B080BD2800002080B500AFDB
S1131BE0FFF76CFE03001800BD4680BD80B582B0CF
S1131BF000AF78607B68013BFDD8C046BD4602B0AB
S1131C0080BD80B586B000AFF860B9607A60FB68CB
S1131C101B687B610122BB689A401300DB431A00F6
S1131C207B691A407B6801211940BB6899400B000D
S1131C301A43FB681A60C046BD4606B080BD80B535
S1131C4084B000AFF860B9607A60FB681B68BA685A
S1131C50D2431A407B681A43FB681A60C046BD46EB
S1131C6004B080BD80B582B000AF786039607B6815
S1131C70254A934204D0254BA721180000F092F87E
S1131C803B68DB683F2B04D9204BD021180000F0BF
S1131C9089F83B685B680F2B04D91C4BD2211800D0
S1131CA000F080F83B681B78DA073B685B789B0799
S1131CB013431A003B685B681B0613433A68127AA5
S1131CC0120213433A68527A12011A437B681A606B
S1131CD03B689B7A1B071A003B68DB7A1B041A4398
S1131CE03B68DB681B021343094A1A437B685A604A
S1131CF078683B681B7C1A000021FFF782FFC0460E
S1131D00BD4602B080BDC04600100040FC6100002A
S1131D10B000000180B582B000AF78600A00FB1CFF
S1131D201A707B680E4A934204D00E4BFA211800B5
S1131D3000F038F8FB1C1B78072B04D9094BFE2153
S1131D40180000F02FF87B68181DFB1C1B781A0084
S1131D500721FFF774FFC046BD4602B080BDC046F0
S1131D6000100040FC61000080B582B000AF7860D4
S1131D707B680A4A934206D09B235A00084B110001
S1131D80180000F00FF87B681B6801221A437B6877
S1131D901A60C046BD4602B080BDC0460010004077
S1131DA0FC61000080B582B000AF78603960FEE766
S1131DB080B586B000AFF860B9607A60FB681B68D4
S1131DC07B610122BB689A401300DB431A007B69E4
S1131DD01A407B6801211940BB6899400B001A43E3
S1131DE0FB681A60C046BD4606B080BD80B582B0AF
S1131DF000AF786039607B681A683B68DA4013008A
S1131E00012213401800BD4602B080BD80B582B0E7
S1131E1000AF78607B681F2B06D996235A00064BC7
S1131E2011001800FFF7BEFF01227B689A401300DF
S1131E301800BD4602B080BD6062000080B584B069
S1131E4000AF78607B68002B04D07A6880231B0283
S1131E509A4205D9094A0A4B11001800FFF7A2FF5C
S1131E60786802F043FF0300DBB21A001F239B1AB9
S1131E70FB60FB681800BD4604B080BDC20A0000C8
S1131E80C862000080B500AF034BDB6C1B0EDBB2F5
S1131E901800BD4680BDC046B081E00F80B582B059
S1131EA000AF254B5A69E023DB00134080229200E7
S1131EB093421ED080229200934206D8002B26D053
S1131EC08022520093421FD027E0C0229200934206
S1131ED004D0E022D20093421CD01EE0FFF7D2FFD0
S1131EE00300122B02D9154B7B601FE0144B7B605F
S1131EF01CE0FFF7C7FF0300122B02D9114B7B60D4
S1131F0014E0114B7B6011E0104B7B600EE0104B32
S1131F107B600BE00F4B7B6008E000237B600E4A84
S1131F200E4B11001800FFF73DFFC0467B681800F8
S1131F30BD4602B080BDC04600800C40804F1200F8
S1131F4040420F0040B56400C0CF6A00C0D8A7006B
S1131F50809FD500406F4001220D00002C630000DB
S1131F6090B583B000AFFC1C114B180000F0BAFB15
S1131F7003002370FB1C1B78072B06D0092B09D107
S1131F80FEF746FA03007B600DE0FFF787FF0300CE
S1131F907B6008E000237B60064A074B11001800B1
S1131FA0FFF700FFC0467B681800BD4603B090BD34
S1131FB006000E005C0D00002C63000080B584B0A8
S1131FC000AF786039600F4B5B6807221340FB60F9
S1131FD07B680D4A934202D80023FB6005E07B68CE
S1131FE00A4A934201D80123FB60064B5B6807222F
S1131FF093431900034BFA680A435A60C046BD462E
S113200004B080BD00000C400024F4000048E80146
S113201080B582B000AF0D4BDA6BFB1D511E8A41B7
S11320201A700A4B0A4ADA63FEF7EAF90300002140
S11320301800FFF7C3FFFB1D1B78002B02D0034BD6
S11320400022DA63C046BD4602B080BD00000C40E9
S1132050711B000090B585B000AF786039600D4BFE
S1132060DA6B0F243B19511E8A411A70094B0A4A34
S1132070DA633A687B6811001800FFF79FFF3B1989
S11320801B78002B02D0034B0022DA63C046BD4606
S113209005B090BD00000C40711B000080B584B0F9
S11320A000AF78600023BB607B68394A934209D053
S11320B0384A934206D0384A384B11001800FFF7CB
S11320C071FE00E0C0467B68180000F00BFB0300C3
S11320D0FB607B682E4A934203D02E4A934206D07B
S11320E00CE02F4B9B6A03221340FB600DE02C4B4A
S11320F09B6A9B0803221340FB6006E0294A274B96
S113210011001800FFF74EFEC046FB68012B05D0F6
S113211014D3022B07D0032B0AD02AE0FEF7EAF9E6
S11321200300BB602FE0FEF7F3F90300BB602AE075
S1132130FEF74AF903005B08BB6024E00023BB60A0
S11321407B68134A934203D07B68124A934219D1A5
S1132150134B9A6A7B680E498B4201D1102300E02D
S11321601423DA40131E0DD0FEF7CBF90300BB6035
S113217008E00023BB600C4A084B11001800FFF76D
S113218011FE00E0C046BB681800BD4604B080BD27
S113219002001E00030020009A0F00002C630000C0
S11321A000800C40C90F0000F40F000080B582B01D
S11321B000AF7860074B5B6D0122134006D1C04627
S11321C0044B1B6D7A681340FAD100E0C046BD464B
S11321D002B080BD00800C4080B500AFC046BD4653
S11321E080BD80B500AFC046BD4680BD80B584B01B
S11321F000AF78607B681B090F221340BB60BB688B
S1132200043B092B5ED89A00354BD3181B689F46B4
S1132210344B9B680F221340FB60FB681800FFF7E8
S1132220F5FD0300FB6056E02E4B5B680F22134064
S1132230FB60FB681800FFF7E9FD0300FB604AE060
S1132240284B5B681B0A01221340FB60FB680133C7
S11322501800FFF7DBFD0300FB603CE07B68224ACB
S113226093420BD11F4B9B6E0F221340FB60FB6804
S11322701800FFF7CBFD0300FB6008E00123FB60BF
S11322801A4A1B4B11001800FFF78CFDC04622E0D0
S11322907B68184A93420BD1124B1B6F03221340E5
S11322A0FB60FB681800FFF7B1FD0300FB6008E06A
S11322B00123FB60104A0E4B11001800FFF772FD5A
S11322C0C04608E00123FB600C4A094B11001800CA
S11322D0FFF768FDC046FB681800BD4604B080BD2A
S11322E09063000000800C4080061200B8120000C9
S11322F02C63000090071A00D1120000D8120000CD
S113230080B584B000AF786039607B681B090F2208
S11323101340FB60FB68043B092B00D9AFE09A0033
S11323205C4BD3181B689F463B68002B04D03A686B
S113233080239B009A4205D9574A584B1100180034
S1132340FFF730FD3B681800FFF778FD03003B60A2
S1132350534B9B680F2293431900514B3A680A432D
S11323609A6093E03B681800FFF768FD0300013BA7
S11323703B604B4B5B684B4A134019003B681A02A5
S1132380474B0A435A6081E03B68002B04D03A680B
S113239080239B009A4205D9434A404B1100180000
S11323A0FFF700FDFFF734FE3B681800FFF746FD1A
S11323B003003B603A4B5B680F2293431900384B90
S11323C03A680A435A60FDF7FFFF0300BB60BB682D
S11323D000211800FFF73EFE58E07B68334A934221
S11323E01DD13A6880231B029A4205D9304A2B4BEF
S11323F011001800FFF7D6FC0420FFF7D7FE3B6856
S11324001800FFF71BFD03003B60254B9B6E0F225A
S113241093431900224B3A680A439A6606E0254A18
S11324201E4B11001800FFF7BDFCC0462EE07B6870
S1132430214A93421BD13B68082B05D91F4A174BED
S113244011001800FFF7AEFC4020FFF7AFFE3B6819
S11324501800FFF7F3FC03003B60114B1B6F0322D2
S1132460934319000E4B3A680A431A6706E0144A6C
S11324700A4B11001800FFF795FCC04606E0114A0C
S1132480064B11001800FFF78DFCC046C046BD4640
S113249004B080BDB8630000181300002C63000072
S11324A000800C40FFFEFFFF2E1300008006120088
S11324B04C1300008713000090071A0090130000CB
S11324C0AD130000B313000080B586B000AF786090
S11324D00A00FB1C1A7000233B617B681B0A0F2255
S11324E013400A2B1AD89A001B4BD3181B689F461B
S11324F01A4B7B6119E01A4B7B6116E0194B7B6127
S113250013E0194B7B6101233B610EE0174B7B61A8
S113251010233B6109E0164B7B6106E0154A164B1C
S113252011001800FFF73EFC12E07B681B0B1F2212
S11325301340FB603B69002B03D03B691800FFF795
S113254035FEFB1C1A78F9687B691800FFF730FC2C
S1132550BD4606B080BDC046E063000040800C402C
S113256008800C4044800C4058800C4060800C4033
S113257078800C40391400002C63000090B585B0BD
S113258000AF78607A68F8239B03134080225203DB
S1132590934200D179E080225203934213D88022DF
S11325A0920293423BD080229202934202D8002BA3
S11325B023D07EE08022D202934223D0E022120371
S11325C093425DD075E0F022520393422CD0F02266
S11325D05203934208D89022520393422BD0D02224
S11325E0520393423DD064E080229203934231D05F
S11325F0F822920393424DD05BE0FDF709FF0300FC
S1132600FB605FE0FDF704FF0300FB60304B9B6859
S11326100F221340FA68DA401300FB6052E0FDF722
S1132620D3FE0300FB604DE02A4B1800FFF736FD94
S11326300300FB6046E0274B1800FFF72FFD030063
S1132640FB60234B9B6E0F221340FA68DA401300A1
S1132650FB6037E0204B1800FFF720FD0300FB6010
S113266030E01D4B1800FFF719FD0300FB60184B09
S11326701B6F03221340FA68DA401300FB6021E069
S1132680FFF76EFC0300FB601CE0FFF707FC030090
S1132690FB6017E0FDF798FE04007B681800FFF765
S11326A0A5FD03001900200002F094FA0300FB606A
S11326B008E00023FB60094A094B11001800FFF7EA
S11326C071FBC046FB681800BD4605B090BDC0460E
S11326D000800C4002001E00030020006915000069
S11326E02C63000080B584B000AF78600F23FB1822
S11326F001221A707B680F221340BB60BB68022B57
S113270030D002D8012B06D07DE0032B50D0062B0D
S113271000D173E077E0454BDA6AF0239B01134064
S11327208022520193420DD080229201934204D020
S11327308022120193420AD00EE00F23FB180222DA
S11327401A700EE00F23FB1803221A7009E00F23FE
S1132750FB1804221A7004E00F23FB1805221A70D8
S1132760C0465BE0314B9B6A03221340022B08D026
S1132770032B0BD0012B0ED10F23FB1803221A704D
S113278015E00F23FB1802221A7010E00F23FB1828
S113279006221A700BE0254B9A6A80235B021340D1
S11327A004D00F23FB180A221A7000E0C04635E05B
S11327B01E4B9B6A0C221340082B08D00C2B0BD009
S11327C0042B0ED10F23FB1803221A7015E00F23DC
S11327D0FB1802221A7010E00F23FB1806221A704D
S11327E00BE0124B9A6A80235B03134004D00F233F
S11327F0FB180A221A7000E0C0460FE00F23FB18F2
S113280007221A700AE00F23FB1800221A70084AE4
S1132810084B11001800FFF7C5FAC0460F23FB1838
S11328201B781800BD4604B080BDC04600800C4033
S1132830891900002C63000080B588B000AF78606F
S11328400A00FB1C1A700323FB611B23FB180322E1
S11328501A7000233B617B680F221340FB60FB6806
S1132860012B05D000D2A0E0032B00D99DE04DE060
S1132870FB1C1B780A2B27D89A00514BD3181B68D2
S11328809F460423FB611B23FB1800221A7022E0DD
S11328900323FB611B23FB1801221A701BE0022394
S11328A0FB611B23FB1802221A7014E00123FB6155
S11328B01B23FB1803221A700DE0424A424B1100FD
S11328C01800FFF76FFA77E0404A3F4B11001800F9
S11328D0FFF768FA70E01B23FB181B780122012123
S11328E0180000F083F8FFF793FBFFF775FC384BF3
S11328F0FA695A62FDF768FD0300BB60BB680021FA
S11329001800FFF7A7FBFFF76CFC55E0FB1C1B78D6
S11329100A2B25D89A002F4BD3181B689F460023F7
S11329207B6124E001220121002000F05FF80223F2
S11329307B611CE001220121012000F057F80123F2
S11329407B6114E0244B012202211800FFF730FAC6
S113295003237B610BE000237B6101233B6106E0E1
S11329601E4A194B11001800FFF71CFA24E0FB68FB
S1132970022B0CD1164B9B6A194A1A407B691A43E5
S113298011003B691A04124B0A439A6214E0104B7B
S11329909B6A144A1A407B699B001A4311003B69E5
S11329A01A050B4B0A439A6206E00F4A064B1100C4
S11329B01800FFF7F7F9C046BD4608B080BDC04611
S11329C00C6400004A1A00002C6300004F1A000037
S11329D000800C403864000040800C40F81A00006D
S11329E0FCFFFEFFF3FFEFFF881C000090B587B0EB
S11329F000AF040008001100FB1D221C1A70BB1D4F
S1132A00021C1A707B1D0A1C1A70FB1D1B78042BF8
S1132A1029D89A00254BD3181B689F4601233B6194
S1132A200223FB6001237B6124E004233B61082330
S1132A30FB6003237B611DE010233B612023FB60CB
S1132A4005237B6116E040233B618023FB60072361
S1132A507B610FE080235B003B6180239B00FB6074
S1132A6009237B6106E0124A124B11001800FFF79C
S1132A7099F917E0BB1D1B78002B10D00E4B3A6957
S1132A801A627B1D1B78002B0CD0C0467B690B4A55
S1132A9019001000FFF7AAF9031EF7D002E0064B55
S1132AA0FA681A62BD4607B090BDC046646400006F
S1132AB08E2000002C63000000800C402C800C4011
S1132AC080B582B000AFEFF310833B603B687B605E
S1132AD072B67B681800BD4602B080BD80B582B076
S1132AE000AF78607B68002B00D162B6C046BD465B
S1132AF002B080BD80B582B000AF0200FB1D1A7029
S1132B00FB1D1B787F2B09D8FB1D1B781A001F2384
S1132B101A40044B012191400A001A60C046BD4688
S1132B2002B080BD00E100E080B582B000AF0200D9
S1132B30FB1D1A70FB1D1B787F2B0ED8FB1D1B7809
S1132B401A001F231340074901229A4013008022D0
S1132B508B50BFF34F8FBFF36F8FC046BD4602B09B
S1132B6080BDC04600E100E080B582B000AF020045
S1132B70FB1D1A70FB1D1B787F2B0AD8FB1D1B78CD
S1132B801A001F231340054901229A40C0235B0009
S1132B90CA50C046BD4602B080BDC04600E100E058
S1132BA080B586B000AFF860B9607A60FB681B68D6
S1132BB07B610122BB689A401300DB431A007B69E6
S1132BC01A407B6801211940BB6899400B001A43E5
S1132BD0FB681A60C046BD4606B080BD90B589B09A
S1132BE000AF78600C0010001900FB1C221C1A7046
S1132BF0BB1C021C1A707B1C0A1C1A707B681A010D
S1132C003D4B9B68D318BB61BB1C1B78002B02D0C7
S1132C10BB69FB6105E07B681A01374BDB68D3189D
S1132C20FB61BB69DB687B617B69002B03D0BB1C48
S1132C301A787B691A727B6B002B14D0FB699B6832
S1132C409B0E032213403B613B69032B03D1FB69B9
S1132C507A6B1A6007E0BA6B3B699A407B6BD318B6
S1132C601A00FB691A603B6B002B14D0FB699B684C
S1132C709B0F032213403B613B69032B03D1FB6988
S1132C803A6B5A6007E0BA6B3B699A403B6BD318C6
S1132C901A00FB695A6001227B689A401300FB60AA
S1132CA07B1C1B78002B03D0134BFA689A6102E05B
S1132CB0114BFA68DA61BB1C1B78002B03D00E4B56
S1132CC0FA685A6302E00C4BFA681A63FB699B6862
S1132CD00A4A1340BB60BB6B1B01BA681343BB6059
S1132CE0FB1C1B78BA681343BB60FB69BA689A6023
S1132CF0C046BD4609B090BD00200C4008C0FFFF8F
S1132D0090B58BB000AF364A80235B01D358BB61CA
S1132D10334A344BD258BB691340BB61BB69002BA7
S1132D2006DA8C235A00304B11001800FFF73AF8EA
S1132D302B4B9B6B7B61BB697A6913403B6200231D
S1132D40FB6145E000237B6237E03B6A01221340CC
S1132D502DD0234B9B683B6101227B6A9A40130070
S1132D60FB601F49214AFB688B507B6A1B013A694F
S1132D70D318DB68BB60BB68002B18D0BB681B7A18
S1132D807B60BB681B7A01225340DAB2BB681A72BB
S1132D90BB681B68002B0AD0BB681C68786A7B6818
S1132DA05A1E9341D9B2BB685B681A00A0473B6ABC
S1132DB05B083B627B6A01337B623B6A002BC4D1B4
S1132DC07B69DA43BB6913403B62FB690133FB61F6
S1132DD0FB69012BB6DDC046BD460BB090BDC046B5
S1132DE000200C400C100000786400000810000063
S1132DF080B588B004AFF860080011007B600B2335
S1132E00FB18021C1A700A23FB180A1C1A70FB68B0
S1132E10032B06D9D7235A00154B11001800FEF7CF
S1132E20C1FFFB69134A934207D9B023FF331A0049
S1132E300F4B11001800FEF7B5FF0A23FB18197891
S1132E400B23FB181A78F868FB690293BB6901939A
S1132E507B6800930B000121FFF7C0FE0122FB6891
S1132E609A40054B9A62C046BD4604B080BDC04638
S1132E7078640000FF03000000200C4080B584B09B
S1132E8000AF786039607B68032B05D9284A294B49
S1132E9011001800FEF786FF3B68002B06D1A8231B
S1132EA09A00244B11001800FEF77CFF224B9B680C
S1132EB0FB603B6899687B681B01FA68D3180A00B9
S1132EC0DA603B681B78002B05D001227B689A40AE
S1132ED0194B9A6304E001227B689A40164BDA632B
S1132EE015493B685A687B688820C000844663445F
S1132EF09B005A503B685B78002B0ED001227B6804
S1132F009A4013000C4A19000C4BD1507B680C48B2
S1132F1001221900FFF744FE05E07B6808480022FF
S1132F201900FFF73DFEC046BD4604B080BDC04653
S1132F309F0200007864000000200C40081000008C
S1132F400C300C4080B586B000AFF8607A600B237B
S1132F50FB180A1C1A70FB68032B05D91E4A1F4B69
S1132F6011001800FEF71EFF7B68002B05D11C4AD8
S1132F701A4B11001800FEF715FF0B23FB181B78E2
S1132F80002B03D0174B9B687B6102E0154BDB6879
S1132F907B61FB681B017A69D3187B617B681B78B2
S1132FA09A077B689B781B071A437B685B789B06B0
S1132FB01A437B689B781B0613431A007B681B79B2
S1132FC09B0413437A68D27892031A437B699A600C
S1132FD0C046BD4606B080BDE5020000786400002E
S1132FE0E602000000200C4080B582B000AF78609B
S1132FF07B68002B06D1F8239A00194B11001800A6
S1133000FEF7D0FE7B685B681A007F23134006D06E
S1133010F9239A00124B11001800FEF7C3FE114B5E
S113302001211800FFF750FA00F022F80020FFF702
S11330309BFD0020FFF75EFD0B490C4A80231B0615
S11330408B507B685A68084B9A607B681B785A01DE
S1133050054B01210A435A60C046BD4602B080BDFB
S1133060786400000013020000200C400C100000E3
S113307080B582B000AF0020FFF756FD194B002247
S11330805A60184B0F22DA61164B0F225A62154B05
S11330900F22DA62134B0F225A63124B0F22DA63A8
S11330A0104B0122DA640F4A0F4B0021D1500D4A14
S11330B00E4B0F49D15000237B600BE0094A7B681B
S11330C08821C9008C4663449B00002199507B6889
S11330D001337B607B68032BF0DDC046BD4602B044
S11330E080BDC04600200C400C10000008100000F9
S11330F00F00008080B582B000AF02003960FB1D74
S11331001A70FB1D1B78002B1FD0FB1D1B78012B95
S113311019D0FB1D1B78022B13D0FB1D1B78032B2E
S11331200DD0FB1D1B78042B07D0FB1D1B78052B32
S113313001D13F230AE0002308E0134B06E0134BC0
S113314004E0134B02E0134B00E0134B3A681341C5
S11331500122134006D1F7239A00104B11001800E6
S1133160FEF720FE01223B689A4010000C49FB1D2B
S11331701A781300DB009B189B00CB1814331860DB
S1133180C046BD4602B080BDF0FF0000FF01000054
S1133190FFFF0000F87900007FF700008C64000056
S11331A00060004080B582B000AF02003960FB1DB2
S11331B01A70FB1D1B78002B1FD0FB1D1B78012BE5
S11331C019D0FB1D1B78022B13D0FB1D1B78032B7E
S11331D00DD0FB1D1B78042B07D0FB1D1B78052B82
S11331E001D13F230AE0002308E0134B06E0134B10
S11331F004E0134B02E0134B00E0134B3A68134115
S11332000122134005D1114A114B11001800FEF799
S1133210C9FD01223B689A4010000E49FB1D1A7833
S11332201300DB009B189B00CB1810331860C046BA
S1133230BD4602B080BDC046F0FF0000FF010000A3
S1133240FFFF0000F87900007FF700000B04000086
S11332508C6400000060004090B585B000AFB96098
S113326011007B600F243B19021C1A700E23FB18FB
S11332700A1C1A703B191B78002B24D00F23FB184F
S11332801B78012B1DD00F23FB181B78022B16D0A3
S11332900F23FB181B78032B0FD00F23FB181B786D
S11332A0042B08D00F23FB181B78052B01D13F23D7
S11332B00AE0002308E0504B06E0504B04E0504B7A
S11332C002E0504B00E0504BBA6813410122134016
S11332D007D11C23FF331A004C4B11001800FEF7D2
S11332E061FD0E23FB181B78002B13D07B68002B89
S11332F008D0BA680F23FB181B7811001800FFF7D9
S113330051FF07E0BA680F23FB181B78110018005F
S1133310FFF7F0FEBB68072B25D83D490F243B1966
S11333201A781300DB009B189B00CB1804331B682E
S1133330BA6892000F2191400A00D24313400E2232
S1133340BA181178BA68920091400A001100304806
S11333503A19127819431300DB009B189B00C31819
S1133360043319602AE02A490F243B191A78130000
S1133370DB009B189B00CB1808331B68BA682549EF
S11333808C46624492000F2191400A00D2431340BC
S11333900E22BA181178BA681E4884466244920014
S11333A091400A0011001A483A191278194313007F
S11333B0DB009B189B00C318083319600E23FB180D
S11333C01B78002B13D17B68002B08D0BA680F231D
S11333D0FB181B7811001800FFF7E4FE07E0BA6839
S11333E00F23FB181B7811001800FFF783FEC0465B
S11333F0BD4605B090BDC046F0FF0000FF010000CF
S1133400FFFF0000F87900007FF70000F06400007F
S113341000600040F8FFFF3F80B584B000AFF86063
S1133420B9607A60BA687B681A43FB6800211800A7
S113343000F004F8C046BD4604B080BD80B586B037
S113344000AFF8607A600B203B180A1C1A707B6886
S1133450174A13407B613B181B78002B13D1FB6880
S1133460032B06D9CC235A00124B11001800FEF787
S113347099FC11497B69802252051A43FB68043385
S11334809B005A500FE0FB68032B06D9CF235A0048
S1133490084B11001800FEF785FC0749FB6804334C
S11334A09B007A695A50C046BD4606B080BDC046EE
S11334B007003F005465000000C00C4080B586B092
S11334C000AFF860B9607A60FB681B687B61012219
S11334D0BB689A401300DB431A007B691A407B687F
S11334E001211940BB6899400B001A43FB681A601C
S11334F0C046BD4606B080BD80B584B000AF7860DC
S113350039607B68012B04D90F4BA9211800FEF701
S113351049FC3B681B0E1B0604D00B4BAE21180064
S1133520FEF740FC7B68002B02D0012B03D008E09F
S1133530064BFB6002E0064BFB60C046FB683A6842
S11335401A60BD4604B080BDB8650000080008409C
S11335500C00084080B582B000AF0200FB1D1A7059
S1133560FB1D1B7804481A000021FFF7A7FFC04683
S1133570BD4602B080BDC0460000084080B582B0A0
S113358000AF0200FB1D1A70FB1D1B78002B03D03B
S1133590054B01221A6202E0034B00221A62C04664
S11335A0BD4602B080BDC0460000084080B584B06E
S11335B000AF78607B681B78002B02D00123FB608E
S11335C001E00023FB607B685B78002B03D0FB6881
S11335D002221343FB607B689B78002B03D0FB68BB
S11335E004221343FB60034BFA681A60C046BD46CD
S11335F004B080BD0000084080B500AF0020FFF794
S1133600A9FF0120FFF7A6FFC046BD4680BD00000C
S113361080B582B000AF78607B68094A934203D0DA
S11336207B68084A934201D1012300E000231A1C5D
S113363001231340DBB21800BD4602B080BDC04672
S1133640000001400004014080B584B000AF786000
S113365039607B681800FFF7DBFF031E04D1384B89
S1133660A0211800FEF79EFB0023FB603B681B783B
S113367001225340DBB2002B02D07B6802225A6045
S11336807B6800225A623B689B781A063B68DB78A9
S11336901B041A433B689B799B021A433B68DB7902
S11336A01B0213433A68127A1A433B685B78002B77
S11336B001D0402300E000231A433B685B7A002BCF
S11336C001D0802300E000231A433B689B7A002B3F
S11336D001D0202300E000231A433B68DB7A002B4F
S11336E001D0102300E000231A433B681B7B002B0E
S11336F001D0082300E000231343FB603B681B79DF
S1133700002B02D080239A0100E000223B685B7901
S1133710002B02D080235B0500E000231343FA68EA
S11337201343FB607B68FA681A603B681B78002BC4
S113373002D07B6801225A60C046BD4604B080BDF9
S11337401C66000080B584B000AFF860B9607A6090
S1133750FB681800FFF75CFF031E04D12B4BEC2120
S11337601800FEF71FFBBB68022B04D9274BED2181
S11337701800FEF717FB7B681B789A067B685B785A
S11337801B061A437B689B781B041A437B68DB780F
S11337901B031A437B681B799B021A437B685B7982
S11337A01B0213437A6892791A437B68DB79002BF6
S11337B002D080239B0300E000231A437B681B7A1A
S11337C0002B02D080235B0300E000231A437B68B4
S11337D05B7A002B01D0102300E000231A437B689E
S11337E09B7A002B01D0042300E000231A437B685A
S11337F0DB7A1B071A431100FB68BA680332120113
S1133800D150C046BD4604B080BDC0461C66000011
S113381080B582B000AF78600A00FB1C1A70FB1CF4
S11338201B7810221343DBB21A007B689A65C046EA
S1133830BD4602B080BD000080B586B000AFF86020
S1133840B9607A607B68002B05D1164A164B1100CB
S11338501800FEF7A7FABB68002B05D1134B18001C
S1133860FEF78CFE0300BB60BB685A1E7B685B00DE
S11338701900100001F0AEF903007B617B691B02A3
S11338807B617B690A4A134005D00A4A064B110042
S11338901800FEF787FAFB687A695A61C046BD468C
S11338A006B080BD6E020000306600004081040056
S11338B03F00E0FF8B02000080B582B000AF78606B
S11338C039607B68324A934206D0CD239A00314B4B
S11338D011001800FEF766FA7B68180000F05CF827
S11338E07B681A683B681B8A01210B439BB2190051
S11338F03B689B7B002B02D08023DB0000E000238D
S11339000B431A437B681A607B681A683B681B7D0B
S1133910002B02D080239B0500E000231A437B6820
S11339201A603B689B7C002B06D03B68DA7C7B6882
S113393011001800FFF76CFF3B681B7B1A00802303
S11339405B011A437B685A603B6859683B689A6814
S11339507B681800FFF770FF3B685B7B002B02D08D
S11339607B681022DA603B685B7D002B06D07B68A5
S11339701B68802252021A437B681A603B681B78DA
S11339801A007B68DA60C046BD4602B080BDC046FE
S113399000C400403066000080B582B000AF78609B
S11339A07B681B4A934205D01A4A1B4B110018002E
S11339B0FEF7F8F97B68194ADA607B6800221A601E
S11339C07B68174A5A607B6800229A607B680022F1
S11339D05A617B680022DA647B68124A9A647B68C5
S11339E000225A657B680A4A934202D17B6800220E
S11339F01A657B6800229A657B68054A934202D166
S1133A007B680022DA65C046BD4602B080BDC04670
S1133A1000C400400604000030660000AA0E000046
S1133A2005100000F91F000080B582B000AF786077
S1133A300A00FB1C1A70C0467B681B6940221340B5
S1133A40FAD0FB1C1A787B685A63C046BD4602B0A4
S1133A5080BD80B582B000AF78600A00BB1C1A80BC
S1133A60C0467B681B6940221340FAD0BB1C1A88ED
S1133A707B68DA63C046BD4602B080BD80B582B0C3
S1133A8000AF204B02225A601E4B5B6A7B601E4BC8
S1133A901B78DBB21A001D4B92007968D1501A4B87
S1133AA01B78DBB21A001A4B9200D3587A689A42F8
S1133AB007D9154B1B78DBB21A00154B92007968B5
S1133AC0D150114B1B78DBB2042B03D10E4B0322D4
S1133AD01A7002E00C4B04221A70FB1C0A4A12787A
S1133AE01A70FB1C1B780B4A19001000FEF712F920
S1133AF0044B00225A62034B01225A60C046BD4661
S1133B0002B080BD00040140B4030020B8030020CB
S1133B102C0000200010004080B584B000AF0200EB
S1133B20FB1D1A70FB1D1A780D4B9200D358FB60D5
S1133B30FB1D1A780A4B9200D3589B08FA68D31AD3
S1133B40FB60FB1D1A78074B9200D358FA689A421F
S1133B5001D9012300E000231800BD4604B080BD54
S1133B602C000020B803002090B587B000AF3B1DA7
S1133B701A4A13CA13C303CA03C3194B9A68184BCE
S1133B80802149000A439A60154B5A6C144B162144
S1133B900A435A64134B144A1A60124B134ADA61EB
S1133BA0104B134A1A64134B802292025A613B1D34
S1133BB001221A703B1D01225A703B1D3022DA602B
S1133BC03B1D0D4A19001000FEF74CF80A4B180073
S1133BD0FEF7CAF8C046BD4607B090BDB066000007
S1133BE000800C40000401400000010AFFFF0000B7
S1133BF00100110000C00C400010004090B583B0DB
S1133C0000AF02003960FB1D1A70FB1D1B787F2B6F
S1133C1028D82F4AFB1D1B785BB29B08C0339B003E
S1133C209B58FA1D1278110003220A40D200FF218A
S1133C3091400A00D2431A4011003B689B01FF22C5
S1133C401A40FB1D1B78180003230340DB009A4035
S1133C501F48FB1D1B785BB29B080A43C0339B00C3
S1133C601A5031E01B4AFB1D1B7819000F230B402F
S1133C70083B9B0806339B00D31804331B68FA1DCA
S1133C801278110003220A40D200FF2191400A0059
S1133C90D2431A4011003B689B01FF221A40FB1DCE
S1133CA01B78180003230340DB009A400948FB1DDE
S1133CB01B781C000F232340083B9B080A43063350
S1133CC09B00C31804331A60C046BD4603B090BDC0
S1133CD000E100E000ED00E080B582B000AF786064
S1133CE07B68013B0C4A934201D9012310E00B4B42
S1133CF07A68013A5A6001235B4203211800FFF7F6
S1133D007DFF064B00229A60044B07221A600023B1
S1133D101800BD4602B080BDFFFFFF0010E000E0C8
S1133D2080B500AF024B01221A64C046BD4680BD77
S1133D3000000C4080B500AF0A4B1B685A1C094BAD
S1133D401A60094B1B685A1C074B1A60064B1B6808
S1133D50052B04D1044B00221A60FFF78FFEC046E6
S1133D60BD4680BDCC030020D003002080B584B0C4
S1133D7000AF7860074B1B68FB60C046054B1A68B0
S1133D80FB68D31A7A689A42F8D8C046BD4604B094
S1133D9080BDC046CC03002080B500AFFFF7C0FF54
S1133DA0FCF712FB0200FA239900100000F012FF46
S1133DB003001800FFF790FF031E00D0FEE7FCF796
S1133DC0B1FBFFF7D1FEFCF773FAFDF7A1F804216C
S1133DD00120FEF731FD124B01211800FEF774FBA0
S1133DE0104B01211800FEF76FFB0023012208216C
S1133DF00220FFF731FA0023012209210220FFF7F4
S1133E002BFA0023042201210020FFF725FA00F0F9
S1133E100BF900F013F90A20FFF7A8FFF9E7C046F1
S1133E20007204000002040080B582B000AF786024
S1133E3039607B681A683B68DA401300012213403A
S1133E401800BD4602B080BD80B582B000AF02004C
S1133E503960FB1D1A70FB1D1B78002B1FD0FB1D46
S1133E601B78012B19D0FB1D1B78022B13D0FB1DD3
S1133E701B78032B0DD0FB1D1B78042B07D0FB1DD7
S1133E801B78052B01D13F230AE0002308E0144BE3
S1133E9006E0144B04E0144B02E0144B00E0144B16
S1133EA03A6813410122134005D1124A124B110002
S1133EB01800FDF777FFFB1D1A781300DB009B1831
S1133EC09B001C330D4A944663443A681100180061
S1133ED0FFF7AAFF03001800BD4602B080BDC0462C
S1133EE0F0FF0000FF010000FFFF0000F879000070
S1133EF07FF70000AD030000C466000000600040CE
S1133F0080B584B000AF3D4B1B68032B02DD3B4BF7
S1133F1001221A603A4B180000F072FF394B180066
S1133F2000F06EFF0023FB6006E0374B180000F042
S1133F3067FFFB680133FB60FB68072BF5DD334B40
S1133F40180000F05DFF0023BB6006E02E4B180054
S1133F5000F056FFBB680133BB60BB68052BF5DD81
S1133F602B4B180000F04CFF244B1B68012B03D192
S1133F70284B180000F044FF274B180000F040FFC6
S1133F8000237B6006E0204B180000F039FF7B68BB
S1133F9001337B607B68052BF5DD204B180000F0B6
S1133FA02FFF164B1B68022B03D11A4B180000F08D
S1133FB027FF194B180000F023FF00233B6006E0A5
S1133FC0114B180000F01CFF3B6801333B603B6859
S1133FD0052BF5DD124B180000F012FF074B1B6890
S1133FE0032B03D10B4B180000F00AFF0D4B1800F4
S1133FF000F006FFC046BD4604B080BD400000206E
S1134000286700002C670000446700004867000030
S1134010506700005C670000606700006467000090
S1134020706700007C67000080B500AF024B00227F
S11340301A70C046BD4680BD9206002080B500AF10
S113404008210220FFF700FF03005A1E9341DAB251
S1134050464B1A7009210220FFF7F6FE03005A1E90
S11340609341DAB2424B1A70424B1B78DBB2042BF9
S113407000D978E09A00404BD3181B689F46FFF79D
S11340803FFF3C4B01221A706DE0394B1B78012233
S11340905340DBB2002B0ED0384B1B78002B0AD0D8
S11340A0364B00221A70364B1B685A1C344B1A606C
S11340B0304B00221A702D4B1B7801225340DBB287
S11340C0002B0DD02E4B1B68012B09D12D4B1B78D7
S11340D0002B05D02B4B00221A70264B02221A709B
S11340E0224B1B7801225340DBB2002B0DD0244B12
S11340F01B68022B09D1234B1B78002B05D0214BC5
S113410000221A701B4B03221A70184B1B780122D1
S11341105340DBB2002B0DD0194B1B68032B09D184
S1134120184B1B78002B05D0164B00221A70114B2C
S113413004221A700E4B1B78002B02D00F4B012265
S11341401A700A4B1B78002B0CD00E4B01221A70EC
S113415008E000F097F806E000F080FA03E000F0D1
S113416047FC00E0C046C046BD4680BD9006002026
S113417096060020920600209C670000470000205D
S1134180400000204600002080B582B000AF786077
S113419039607B681A683B68DA40130001221340D7
S11341A01800BD4602B080BD80B582B000AF0200E9
S11341B03960FB1D1A70FB1D1B78002B1FD0FB1DE3
S11341C01B78012B19D0FB1D1B78022B13D0FB1D70
S11341D01B78032B0DD0FB1D1B78042B07D0FB1D74
S11341E01B78052B01D13F230AE0002308E0144B80
S11341F006E0144B04E0144B02E0144B00E0144BB3
S11342003A6813410122134005D1124A124B11009E
S11342101800FDF7C7FDFB1D1A781300DB009B187F
S11342209B001C330D4A944663443A6811001800FD
S1134230FFF7AAFF03001800BD4602B080BDC046C8
S1134240F0FF0000FF010000FFFF0000F87900000C
S11342507FF70000AD030000B0670000006000407D
S113426080B500AF054B180000F0CAFD044B1800E0
S113427000F0C6FDC046BD4680BDC04614680000BF
S11342801868000080B500AF8F4B1B78002B04D05A
S1134290FFF7E6FF8C4B00221A7008210220FFF77B
S11342A083FF03005A1E9341DAB2884B1A70092126
S11342B00220FFF779FF03005A1E9341DAB2844BC0
S11342C01A70824B1B7801225340DBB2002B05D0BD
S11342D0804B1B685A1C7F4B1A6002E07D4B002206
S11342E01A607C4B1B68462B05D17B4B01221A605C
S11342F07A4B01221A60784B1B68012B0ED1784B44
S11343001B685A1C764B1A60754B1B68642B05DDC1
S11343100020FCF71FF8724B00221A606F4B1B68D9
S1134320012B02D16D4B00221A60684B1B780122CD
S11343305340DBB2002B28D06A4B1B78002B24D0CF
S1134340654B00221A60634B00221A60654B002201
S11343501A70654B1B785A1E9341DBB201225340FD
S1134360DBB21A1C01231340DAB25F4B1A705E4BA6
S11343701B7801225340DBB2002B03D00020FBF753
S1134380E9FF02E00020FBF7C3FF504B1B78002B32
S113439002D0544B01221A70544B1B68012B04D1D8
S11343A0534B1B685A1C524B1A60514B1B68322BDF
S11343B005DD4E4B00221A604D4B00221A604B4B18
S11343C01B68022B0FD14A4B1B68312B0BDC494B6A
S11343D001221A60464B00221A60474B01221A60E0
S11343E0424B00221A60434B1B68012B0ED1434BF6
S11343F01B685A1C414B1A60404B1B68C82B05DDD7
S11344000120FBF7A7FF3D4B00221A603A4B1B68C3
S1134410012B02D1384B00221A602D4B1B7801224C
S11344205340DBB2002B2AD0354B1B78002B26D00F
S1134430304B00221A60324B00221A70314B1B7829
S11344405A1E9341DBB201225340DBB21A1C0123F2
S11344501340DAB22B4B1A70244B1B685A1C234BA3
S11344601A60284B1B7801225340DBB2002B03D087
S11344700120FBF76FFF02E00120FBF749FF144B1B
S11344801B78002B02D01E4B01221A700F4B1B7895
S113449001225340DBB2002B12D00D4B1B780122BA
S11344A05340DBB2002B0BD00020FBF731FF01207F
S11344B0FBF72EFF044B01221A70134B00221A70D3
S11344C0C046BD4680BDC04648000020900600207E
S11344D096060020D4030020F0030020E803002007
S11344E0DC0300204600002044000020D803002004
S11344F0E4030020F4030020EC030020E003002088
S113450047000020450000209206002080B582B0BC
S113451000AF7860024B1800BD4602B080BDC046B3
S1134520FFFF000080B584B000AFF860B9607A6026
S1134530FB681800FFF7EAFF02007B68934205D985
S1134540084A094B11001800FDF72CFCFA68BB68F7
S11345501B01D3183C337A681A60C046BD4604B0C8
S113456080BDC046B50200006468000080B582B01A
S113457000AF786039607B681800FFF7C7FF02005E
S11345803B68934205D9064A064B11001800FDF713
S113459009FC7B683A68DA61C046BD4602B080BD5A
S11345A03C0400006468000090B589B000AF142199
S11345B00C007B1818000C231A00002100F017FCD3
S11345C021007B1803229A717B1801225A717B18EF
S11345D016481A000121FFF7B5F8144B9A6A134BD9
S11345E013490A439A62114B64211800FFF7BEFF76
S11345F03B1D18000D231A00002100F0F8FB3B1DA1
S113460001221A703B1D08229A703B1D074A1900AB
S11346101000FFF719F8054B002201211800FFF7DD
S113462081FFC046BD4609B090BDC04600000140B0
S11346300200010080B500AFFFF7B6FF054B18007C
S113464000F0DEFB044B180000F0DAFBC046BD4668
S113465080BDC046806800008468000080B500AF5B
S1134660514B1B78002B04D0FFF7E4FF4E4B002284
S11346701A704E4B1A784E4B1A704E4B1A784E4B9A
S11346801A700420FFF748FA03001A00474B1A7007
S11346900320FFF741FA03001A00464B1A70454BFA
S11346A01B78002B18D0444B1B7801225340DBB2FB
S11346B0002B11D0414B1B68632B06DC3F4B1A685F
S11346C03F4B1B68D2183D4B1A603C4B1A683D4B5C
S11346D01100180000F094FB344B1B78002B18D009
S11346E0334B1B7801225340DBB2002B11D0334BE8
S11346F01B68002B06DD314B1A68314B1B68D21A3C
S11347002E4B1A602D4B1A682E4B1100180000F026
S113471077FB2A4B1B68322B14D004DC002B07D008
S1134720192B0AD01DE04B2B11D0642B14D018E0A8
S1134730224B1A68244B5A6413E0204B1A68224B0C
S11347405A640EE01D4B1A681F4B5A6409E01B4B58
S11347501A681D4B5A6404E0184B1A681A4B5A64C1
S1134760C0461A4B1B7801225340DBB2002B18D0F1
S1134770174B1B7801225340DBB2002B11D00020D1
S1134780FBF7C6FD0120FBF7C3FD0F4B00225A6463
S11347900A4B00221A60044B01221A700D4B0022AE
S11347A01A70C046BD4680BD490000209306002013
S11347B0910600209406002095060020F8030020AE
S11347C04C000020E068000000000140900600203A
S11347D0960600209206002080B582B000AF786073
S11347E039607B681A683B68DA4013000122134081
S11347F01800BD4602B080BD80B582B000AF020093
S11348003960FB1D1A70FB1D1B78002B1FD0FB1D8C
S11348101B78012B19D0FB1D1B78022B13D0FB1D19
S11348201B78032B0DD0FB1D1B78042B07D0FB1D1D
S11348301B78052B01D13F230AE0002308E0144B29
S113484006E0144B04E0144B02E0144B00E0144B5C
S11348503A6813410122134005D1124A124B110048
S11348601800FDF79FFAFB1D1A781300DB009B1854
S11348709B001C330D4A944663443A6811001800A7
S1134880FFF7AAFF03001800BD4602B080BDC04672
S1134890F0FF0000FF010000FFFF0000F8790000B6
S11348A07FF70000AD030000F468000000600040E2
S11348B080B582B000AF7860024B1800BD4602B0EC
S11348C080BDC046FFFF000080B582B000AF7860B5
S11348D039607B681800FFF7EBFF02003B689342E6
S11348E005D9064A064B11001800FDF75BFA7B68F0
S11348F03A68DA61C046BD4602B080BD3C0400009F
S11349005869000080B586B002AFF8607A600B2069
S11349103B180A1C1A70084A3B181978F868B22325
S1134920FF330193054B009313000022FEF760FA56
S1134930C046BD4604B080BD4C0001406407002061
S113494080B58AB002AF18217B1800221A707B1838
S1134950214A5A607B181800FEF746FB1F4B204A79
S11349601A601E4B00225A600C217B1800221A7018
S11349707B1801225A707B181A4A5A607B18174A0E
S11349809A607B1819000020FEF778FA3B1D032279
S11349901A703B1D01225A703B1D01229A703B1D67
S11349A00022DA703B1D00221A713B1D1A000121FE
S11349B00020FEF7C7FA0C4AB223FF3301930B4BD6
S11349C000931300002201210020FEF711FAC046D3
S11349D0BD4608B080BDC046800400209806002073
S11349E005490000020018004C0001406407002043
S11349F090B589B000AF08210220FFF7FDFE030047
S1134A005A1E9341DAB2314B1A70314B1B68002B9A
S1134A103DD12F4B01221A602E4B01211800FDF7C6
S1134A2053FD10210C007B1818000C231A000021E0
S1134A3000F0DDF921007B1803229A717B18012212
S1134A405A717B1824481A000121FEF77BFE224B81
S1134A509A6A214B21490A439A621F4B1E2118006E
S1134A60FFF732FF3B0018000D231A00002100F06D
S1134A70BEF93B0001221A703B0000229A703B00F1
S1134A80154A19001000FEF7DFFDFFF759FF002358
S1134A90FB610AE0F869FF23FF22FF2100F022F8FE
S1134AA000F066F8FB690133FB61FB690F2BF1DD54
S1134AB0064B1B7801225340DBB2002B02D0084B7B
S1134AC000221A70C046BD4609B090BD9006002071
S1134AD0FC030020408104000000014002000100AA
S1134AE09206002080B584B000AFF860B9607A60A7
S1134AF03B60B8681C49FA6813005B009B189B0074
S1134B00585079681848FA6813005B009B189B009A
S1134B10C3180433196039681348FA6813005B003A
S1134B209B189B00C318083319600F49FA681300D7
S1134B305B009B189B00CB1804331B689BB21B02C1
S1134B4099B20948FA6813005B009B189B00C318CC
S1134B5008331B689BB20B439AB2044B1A80C046BD
S1134B60BD4604B080BDC046A4060020C80A00208B
S1134B7080B582B000AF17237B601DE0124B1B8809
S1134B801A007B681A4113000122134006D00F4B10
S1134B901A680F4B52001421D15205E00B4B1A68CE
S1134BA00B4B52000521D152084B1B685A1C074B72
S1134BB01A607B68013B7B607B68002BDEDAC046B1
S1134BC0BD4602B080BDC046C80A002000040020D3
S1134BD064070020002243088B4274D303098B42EC
S1134BE05FD3030A8B4244D3030B8B4228D3030CB9
S1134BF08B420DD3FF22090212BA030C8B4202D35B
S1134C001212090265D0030B8B4219D300E0090A82
S1134C10C30B8B4201D3CB03C01A5241830B8B428B
S1134C2001D38B03C01A5241430B8B4201D34B0374
S1134C30C01A5241030B8B4201D30B03C01A5241D9
S1134C40C30A8B4201D3CB02C01A5241830A8B425E
S1134C5001D38B02C01A5241430A8B4201D34B0247
S1134C60C01A5241030A8B4201D30B02C01A5241AB
S1134C70CDD2C3098B4201D3CB01C01A524183095F
S1134C808B4201D38B01C01A524143098B4201D399
S1134C904B01C01A524103098B4201D30B01C01AC4
S1134CA05241C3088B4201D3CB00C01A524183083E
S1134CB08B4201D38B00C01A524143088B4201D36B
S1134CC04B00C01A5241411A00D2014652411046CB
S1134CD07047FFE701B5002000F006F802BDC046AA
S1134CE00029F7D076E770477047C0461C2101239E
S1134CF01B04984201D3000C10391B0A984201D3BB
S1134D00000A08391B09984201D30009043902A298
S1134D10105C40187047C0460403020201010101FF
S1134D200000000000000000084B10B50400002B38
S1134D3002D0002100E000BF054B1868836A002BF5
S1134D4000D098472000FCF756F8C0460000000049
S1134D507469000070B500260C4D0D4C641BA41042
S1134D60A64209D1002601F025F80A4D0A4C641B1D
S1134D70A410A64205D170BDB300EB589847013684
S1134D80EEE7B300EB5898470136F2E72002002023
S1134D90200200202002002024020020044B1B6873
S1134DA01B6A002B00D1034BEC3318687047C046D4
S1134DB050000020B400002082B0002900D101A9D5
S1134DC0101E06D0002B06D013780B601078431EFB
S1134DD0984102B0704702204042FAE7002310B520
S1134DE09A4200D110BDCC5CC4540133F8E70300EF
S1134DF01218934200D1704719700133F9E700008B
S1134E000FB40B4B13B51C68002C05D0A369002B01
S1134E1002D1200000F0BEF905AB049AA16820007D
S1134E20019300F091FB16BC08BC04B01847C046BF
S1134E3050000020F0B51D004F4B85B01E680400E3
S1134E400F000092002E05D0B369002B02D1300070
S1134E5000F0A0F9494B9C4250D17468009B022B8E
S1134E6005D0012B00D984E0002D00DA81E0210077
S1134E70300000F021F9616B002908D0230044338D
S1134E80994202D0300000F08FFA002363630023BC
S1134E90A3616360A3891B0603D52169300000F078
S1134EA083FAA389364A1340A381009B022B5AD06C
S1134EB003AB02AA2100300000F000FAA3891843D2
S1134EC0A081002D24D1029D280000F063FA0195F1
S1134ED0071E42D1029B0193AB4239D101204042CB
S1134EE00223A2891343A3810023A3602300473331
S1134EF0236023610123636105B0F0BD214B9C4213
S1134F0001D1B468AAE7204B9C42A7D1F468A5E775
S1134F10002FD9D0B369002B02D1300000F03AF948
S1134F20009B012B03D1A389009A1A43A281082074
S1134F30A389276027616561184018D001201840B3
S1134F400023984211D06D42A360A5611800D3E7F5
S1134F50019800F01FFA071EC0D08023A289019D8A
S1134F601343A381D6E70020BAE7A560C4E7A06095
S1134F70C2E701204042BFE750000020A46A0000BD
S1134F805CF3FFFFC46A0000846A00000B1E04D0B7
S1134F90FF2A04D98A2303608B3B180070470A70E8
S1134FA00123FAE7F7B58A8905000C00130760D4DA
S1134FB04B68002B04DC0B6C002B01DC0020FEBDD5
S1134FC0E76A002FFAD000232E682B6080235B0150
S1134FD0216A1A4034D0606DA3895B0706D56368E3
S1134FE0C01A636B002B01D0236CC01A0200216A23
S1134FF000232800E76AB847A189431C06D12B681F
S11350001D2B30D82B4ADA40D3072CD500236360FC
S113501023692360CB0405D5431C02D12B68002BE4
S113502000D16065616B2E600029C7D02300443332
S1135030994202D0280000F0B7F900206063BEE76F
S113504001232800B847431CC6D12B68002BC3D0CA
S11350501D2B01D0162B01D12E60AFE74023A2896E
S11350601343A381ABE740230B430120A3814042B8
S1135070A5E70F69002FA1D00B680F60DB1B01931C
S11350800023920700D14B69A360019B002B00DC35
S113509094E7019B3A00216A2800A66AB0470028D9
S11350A003DC4023A2891343DFE7019B3F181B1A4B
S11350B00193EAE7010040200B6970B505000C007C
S11350C0002B01D1002070BD002804D08369002B7F
S11350D001D100F05FF80B4B9C4209D16C680C22A3
S11350E0A35E002BEED021002800FFF75BFFEAE768
S11350F0054B9C4201D1AC68F1E7044B9C42EED1D4
S1135100EC68ECE7A46A0000C46A0000846A00004A
S1135110002310B50400036043608360818143660B
S1135120C281036143618361190008225C30FFF787
S11351305EFE054B24626362044BA362044BE3628C
S1135140044B236310BDC046855A0000AD5A0000CD
S1135150E55A0000115B000010B5024900F08CF81C
S113516010BDC046B950000070B568254A1E5543AD
S11351700E002900743100F061F9041E08D00021EA
S11351802A00016046600C30A0606832FFF72FFEF1
S1135190200070BD836913B50400002B28D18364FB
S11351A0C3640365134B144A1B68826201939842DB
S11351B001D101238361200000F020F86060200009
S11351C000F01CF8A060200000F018F80022E06055
S11351D004216068FFF79CFF01220921A068FFF702
S11351E097FF02221221E068FFF792FF0123A361D7
S11351F013BDC0467469000059510000F8B51C4B3A
S113520007001E68B369002B02D13000FFF7C2FF0C
S11352104836B4687368013B04D53368002B07D063
S11352203668F6E70C22A55E002D0DD06834F2E74F
S113523004213800FFF798FF30600028F0D10C23D8
S113524004003B602000F8BD20000A4B6566256021
S11352506560A560E36025616561A5610822290098
S11352605C30FFF7C4FD6563A563A564E564E9E705
S1135270746900000100FFFFF7B504000700002671
S113528001914834002C01D13000FEBD6368A5684B
S11352900093009B013B009301D52468F2E7AB899E
S11352A0012B08D90E22AB5E013304D0290038004B
S11352B0019B984706436835EBE7000070B50E0084
S11352C01D000E23C95E96B01400002907DA0023DE
S11352D02B60B3891B0611D48023DB000FE06A46E0
S11352E000F00EFD0028F2DBF022019B12021340B5
S11352F0054A9B185A4253412B60EDE74023002096
S1135300236016B070BDC04600E0FFFFF7B502266B
S11353108B8905000C00334206D0230047332360F9
S1135320236101236361F7BD01AB6A46FFF7C6FF42
S113533000990700280000F081F8002808D10C2209
S1135340A35E9A05EFD4032293431E43A681E4E7A8
S11353500F4BAB628023A28920601343A381009B7F
S113536020616361019B002B0DD00E23E15E2800B8
S113537000F0D8FC002806D00322A38993431A0026
S113538001231343A381A0893843A081CBE7C046FE
S11353905951000010B5034B0100186800F04EF895
S11353A010BDC0465000002070B50500002910D083
S11353B00C1F2368002B00DAE418280000F0E3FC3B
S11353C01D4A1368002B05D163601460280000F0A7
S11353D0DBFC70BDA34209D9216860188342F3D174
S11353E018685B6841182160EEE713005A68002AC8
S11353F001D0A242F9D919685818A0420BD12068EB
S11354000918581819608242E0D11068526841188E
S113541019605A60DAE7A04202D90C232B60D5E761
S113542021686018824203D11068526841182160D3
S113543062605C60CAE7C04604040020032370B5C0
S1135440CD1C9D43083506000C2D1ED20C25A94207
S11354501DD8300000F097FC254A1468210000296B
S113546019D1244C2368002B03D1300000F0F8FA42
S113547020602900300000F0F3FA431C2BD10C23E8
S11354803000336000F080FC03E0002DDFDA0C23F1
S11354903360002070BD0B685B1B19D40B2B03D940
S11354A00B60CC18256003E04B688C420DD113606F
S11354B0300000F069FC200007220B30231D9043CC
S11354C0C31AE7D05A42E250E4E763600C00EFE706
S11354D00C004968C3E70323C41C9C43A042E1D0E9
S11354E0211A300000F0BCFA431CDBD1C7E7C046E8
S11354F00404002008040020936810B5013B936065
S1135500002B04DA9469A34207DB0A2905D0136847
S1135510581C10601970080010BD00F0FFFA01005B
S1135520F9E7F8B506000F001400D518AC4201D114
S1135530002007E021783A003000FFF7DDFF013456
S1135540431CF3D1F8BD0000F0B59FB002900F00EA
S113555016000593002805D083690493002B01D11C
S1135560FFF718FE7B4B9F425BD1029B5F68BB89B0
S11355701B0762D53B69002B5FD0002306AC636137
S1135580203363761033A37635002B78002B01D0BB
S1135590252B5CD1AB1B04930CD03200390002984C
S11355A0FFF7BFFF431C00D1C4E06269049B94462B
S11355B0634463612B78002B00D1BBE001220023FC
S11355C05242626002A9543252186E1C2360E36096
S11355D0A3601370A365317805225F4800F0C8FB0F
S11355E0751C002835D12268D30604D5532302A99B
S11355F05B1820211970130704D5532302A95B18E3
S11356002B21197033782A2B2CD0350000210A2045
S1135610E3682A786E1C303A092A64D900292ED00E
S113562026E04E4B9F4202D1029B9F689FE74C4B62
S11356309F429CD1029BDF6899E73900029800F0F1
S1135640D7FA002899D0012040421FB0F0BD01359F
S11356509BE7414B2268C01A012383401343236014
S11356602E00B8E7059B191D1B680591002B01DB73
S1135670099304E05B42E3600223134323602B7825
S11356802E2B0AD16B782A2B35D1059B02351A1D96
S11356901B680592002B2BDB0793324E29780322DB
S11356A0300000F065FB002806D04023801B8340B7
S11356B02268013513432360297806222A486E1C88
S11356C0217600F055FB00283AD0284B002B25D139
S11356D00722059B07339343083305936369039AB1
S11356E09B18636150E7434301219B18350090E701
S11356F001235B42D0E700230A201A0001356360CE
S113570029786E1C3039092903D9002BC5D007929A
S1135710C3E74243012352183500F1E705AB009378
S11357203A00134B2100029800E000BF0390039B52
S11357300133D3D1BB895B0600D584E70B9884E79A
S113574005AB00933A000A4B2100029800F080F860
S1135750ECE7C046A46A0000E46A0000C46A0000E2
S1135760846A0000EA6A0000EE6A0000000000009B
S113577023550000F7B5150001938A680B69009062
S11357800C00934200DA130022002B60433212789B
S1135790002A01D001332B6023689B0602D52B68B5
S11357A002332B60062723681F4027D0230043338E
S11357B01B785A1E93412268920630D42200019924
S11357C043320098089EB047431C25D00623206826
S11357D02A68E16803400025042B03D18D1AEB43AA
S11357E0DB171D40A3682269934201DD9B1AED1863
S11357F00027BD4220D1002010E00137E3682A6869
S11358009B1ABB42D2DD2200012319320199009870
S1135810089EB047431CF0D101204042FEBD302019
S1135820E1184331087021005A1C45310978A21847
S1135830433202331170C1E7220001231A32019965
S11358400098089EB047431CE6D00137D1E700001A
S1135850F0B589B004920A00433205930390029292
S11358600A7E0C000E9B6E2A00D186E01FD8632AA4
S113587033D008D8002A00D18CE0582A4DD0250016
S113588042352A7030E0642A01D0692AF7D11968B8
S113589025680A1D280629D508681A60002803DA35
S11358A02D23029A404213706B4E0A274FE0732A4D
S11358B074D008D86F2A1FD0702AE0D1202209683A
S11358C00A43226003E0752A16D0782AD7D1220031
S11358D0782145321170614E22E025001A68423564
S11358E0111D196013682B70012365E008681A60A4
S11358F06906D3D500B2D1E719682568081D186078
S113590008682E0605D5544E08276F2A1BD00A278F
S113591019E06D06F7D580B2F5E745314E4E0A70B1
S113592018682268011D00681960150621D5D3077F
S113593002D520231A4322601027002803D12023F4
S113594022689A4322602300002243331A7063685A
S1135950A360002B58DB04222168914321600028B6
S113596054D1029D002B5AD02500337842352B7038
S113597055E05506DBD580B2D9E71A680D68101DCD
S11359804969186013682E0601D5196002E06D0696
S1135990FBD519800023029D23614FE01A68111D75
S11359A01960156800216268280000F0E1F90028F8
S11359B001D0401B6060636823610023029A137066
S11359C03CE023692A0004990398059DA847431CD9
S11359D03ED023689B0715D4079BE068984239DAC8
S11359E0180037E022000123193204990398059E18
S11359F0B047431C2CD00135E368079A9B1AAB428D
S1135A00F0DCE9E70025F7E70028ADD0029D390076
S1135A10FFF766F9735C013D2B700028F7D1082F5E
S1135A2009D12368DB0706D563682269934202DC47
S1135A303023013D2B70029B5B1B2361059B07AA4E
S1135A4000932100049B0398FFF794FE431CB8D1F4
S1135A500120404209B0F0BDF56A0000066B000069
S1135A60002370B5064C050008002360FBF716FA06
S1135A70431C03D12368002B00D02B6070BDC046AB
S1135A80CC0A002070B50C000E25495F00F07EF9A9
S1135A90002803DB636D1B18636570BDA389024A8C
S1135AA01340A381F9E7C046FFEFFFFFF8B51F00DD
S1135AB08B8905000C001600DB0505D50E23C95E95
S1135AC00022022300F040F9A389054A280013406C
S1135AD0A38132000E23E15E3B0000F075F8F8BDAF
S1135AE0FFEFFFFF70B50C000E25495F00F02CF9A5
S1135AF0A389421C03D1054A1340A38170BD8022AF
S1135B0052011343A3816065F8E7C046FFEFFFFF2E
S1135B1010B50E23C95E00F0E1F810BDF8B505001C
S1135B200E001400002804D08369002B01D1FFF774
S1135B3031FB224B9C422DD16C68A369A360A389DD
S1135B401B0731D52369002B2ED023682269F7B2B5
S1135B50981A6369F6B2834205DC21002800FFF736
S1135B60ABFA002826D1A3680130013BA360236867
S1135B705A1C22601F706369834204D0A389DB0727
S1135B801AD50A2E18D121002800FFF795FA00280B
S1135B9012D00FE00A4B9C4201D1AC68CDE7094B0F
S1135BA09C42CAD1EC68C8E72100280000F020F824
S1135BB00028CAD0012676423000F8BDA46A00004D
S1135BC0C46A0000846A000070B505000800110072
S1135BD00022064C22601A00FBF77EF9431C03D115
S1135BE02368002B00D02B6070BDC046CC0A002077
S1135BF0364B70B51D6806000C00002D05D0AB694E
S1135C00002B02D12800FFF7C5FA314B9C420FD17B
S1135C106C680C23E25E93B219072DD4D90611D413
S1135C2009230120336037331343A381404270BDFD
S1135C30284B9C4201D1AC68EBE7274B9C42E8D14E
S1135C40EC68E6E75B0713D5616B002908D02300F5
S1135C504433994202D03000FFF7A6FB002363636C
S1135C602422A3899343A3810023636023692360CF
S1135C700823A2891343A3812369002B0BD1A021FC
S1135C808022A389890092000B40934203D0210013
S1135C903000FFF73BFB0123A289134011D00023FE
S1135CA0A36063695B42A361002023698342BED180
S1135CB00C23E25E1306BAD540231343A3810138B3
S1135CC0B5E7920700D46369A360EDE750000020B4
S1135CD0A46A0000C46A0000846A0000002370B54E
