S016000053544B333230305F746F7563685F332E73333713
S1130000001000209D030000C9030000C903000084
S1130010C9030000C9030000C9030000C9030000AC
S1130020C9030000C9030000C9030000C90300009C
S1130030C9030000C8030000C903000049380000D8
S1130040C9030000C903000079050000C9030000CA
S1130050C9030000C9030000C9030000C90300006C
S1130060C9030000C9030000C9030000C90300005C
S1130070C9030000C9030000C9030000C90300004C
S1130080C9030000C9030000C903000010B5064CF1
S11300902378002B07D1054B002B02D0044800E045
S11300A000BF0123237010BD1002002000000000D7
S11300B04C600000044B10B5002B03D003490448E6
S11300C000E000BF10BDC046000000001402002084
S11300D04C600000164B002B00D1144B9D4640226F
S11300E092029A1A924600218B460F461348144AEC
S11300F0121A04F0DCF90F4B002B00D098470E4B7A
S1130100002B00D098470020002104000D000D486A
S1130110002802D00C4800E000BF04F07BF9200066
S1130120290003F0B3FB04F05FF9C04600000800A7
S11301300010002000000000000000001002002059
S113014050050020000000000000000080B582B0CF
S113015000AF02003960FB1D1A70FB1D1B78002BD9
S11301601FD0FB1D1B78012B19D0FB1D1B78022B04
S113017013D0FB1D1B78032B0DD0FB1D1B78042B08
S113018007D0FB1D1B78052B01D13F230AE0002378
S113019008E0134B06E0134B04E0134B02E0134B4F
S11301A000E0134B3A6813410122134005D1114A70
S11301B0114B1100180001F06FFF01223B689A40B7
S11301C010000E49FB1D1A781300DB009B189B00DE
S11301D0CB1814331860C046BD4602B080BDC0467B
S11301E0F0FF0000FF010000FFFF0000F8790000AD
S11301F07FF70000DD0300008C5400000060004025
S113020080B582B000AF02003960FB1D1A70FB1D7F
S11302101B78002B1FD0FB1D1B78012B19D0FB1D55
S11302201B78022B13D0FB1D1B78032B0DD0FB1D59
S11302301B78042B07D0FB1D1B78052B01D13F2312
S11302400AE0002308E0134B06E0134B04E0134BD1
S113025002E0134B00E0134B3A68134101221340B0
S113026005D1114A114B1100180001F015FF0122AC
S11302703B689A4010000E49FB1D1A781300DB00FE
S11302809B189B00CB1818331860C046BD4602B0BB
S113029080BDC046F0FF0000FF010000FFFF00002A
S11302A0F87900007FF70000270400008C54000058
S11302B00060004080B582B000AF134B01211800EC
S11302C002F05EFA114B0121180002F059FA0023E2
S11302D07B6010E00E4B7A68D200D05C0C4A7B68DD
S11302E0DB00D318043319680023042202F0FEFD56
S11302F07B6801337B607B68012BEBDD00231800F6
S1130300BD4602B080BDC0464081040000720400B6
S1130310F454000080B582B000AF78607B68002B95
S113032011DB7B68012B0EDC0A4B7A68D200D05CAF
S1130330084A7B68DB00D31804331B681900FFF7F5
S113034005FF002301E001235B421800BD4602B013
S113035080BDC046F454000080B582B000AF786020
S11303607B68002B11DB7B68012B0EDC0A4B7A685F
S1130370D200D05C084A7B68DB00D31804331B68C6
S11303801900FFF73DFF002301E001235B42180041
S1130390BD4602B080BDC046F45400000648804704
S11303A00649074A074B9B1A03DD043BC858D05043
S11303B0FBDCFFF78FFE0000E10400005860000042
S11303C00000002010020020FEE7C04680B582B085
S11303D000AF00F01FF803007B60084B5B680F223E
S11303E013407A68DA4013007B60054B7A681A6020
S11303F07B681800BD4602B080BDC04600800C403A
S11304000800002080B500AF014B1800BD4680BD38
S113041000366E0180B582B000AF294BDA6AF02352
S11304209B0113408022520193420CD080229201FE
S1130430934204D080221201934208D00BE0214B56
S11304401B687B6036E080231B027B6032E01E4B1E
S11304501B687B602EE01A4BDA68E023DB00134054
S113046080229200934218D080229200934206D8B0
S1130470002B18D080225200934211D016E0C022E3
S11304809200934206D08022D20093420ED10F4BA9
S11304907B600EE00E4B7B600BE00E4B7B6008E054
S11304A00D4B7B6005E00D4B7B6002E000237B601D
S11304B0C046C0467B681800BD4602B080BDC04639
S11304C000800C400400002000000020406F400128
S11304D0809FD500C0D8A70040B56400804F1200AB
S11304E080B500AF024B034A9A60C046BD4680BD4A
S11304F000ED00E00000000080B500AF80231B0287
S11305001800BD4680BD80B500AFFA239B001800DB
S1130510BD4680BD80B500AF024B1B681800BD46C8
S113052080BDC0460400002080B582B000AF020048
S1130530FB1D1A70FB1D1B787F2B09D8FB1D1B7834
S11305401A001F231A40044B012191400A001A602B
S1130550C046BD4602B080BD00E100E080B500AFFA
S1130560044B1A69034B04218A431A6130BFC04605
S1130570BD4680BD00ED00E080B582B000AF164BF3
S113058002225A60154B02225A60134B01229A61CF
S1130590124B5B6A7B60124B1B78DBB21A00114B67
S11305A092007968D1500E4B1B78DBB21A000E4BC7
S11305B09200D3587A689A4207D9094B1B78DBB268
S11305C01A00094B92007968D150084B01221A7025
S11305D0C046BD4602B080BD000001400004014099
S11305E02C02002030020020500200202D020020A6
S11305F080B584B000AF0200FB1D1A70FB1D1A7891
S11306000D4B9200D358FB60FB1D1A780A4B9200E5
S1130610D3589B08FA68D31AFB60FB1D1A78074B62
S11306209200D358FA689A4201D9012300E00023CA
S11306301800BD4604B080BD5002002030020020E6
S113064080B582B000AF0200FB1D1A70FB1D1B7841
S1130650114A1900100001F0B9FC104B00225A6233
S11306600F4B00225A620F4B00221A700B4B0122CF
S11306705A600B4B01225A6001E0FFF76FFF094BF0
S11306801B78DBB201225340DBB2002BF5D1C0460C
S1130690BD4602B080BDC0460010004000000140CD
S11306A0000401402D02002080B500AF164B180055
S11306B001F0D4FC154B00221A7019E0134B1B787F
S11306C0DBB21A00124B9B5C01225340DBB2002BBD
S11306D006D10E4B1B78DBB21800FFF7B1FF00E028
S11306E0C0460A4B1B78DBB20133DAB2074B1A70EF
S11306F0064B1B78DBB2072BE0D9034B180001F043
S11307008FFCC046BD4680BD001000402C02002076
S11307100455000090B587B000AF3B1D224A13CAB0
S113072013C303CA03C3214B0121180002F028F8A4
S11307301F4B0121180002F023F81E4B0121180061
S113074002F01EF81C4B5A6C1B4B04210A435A64DA
S11307501A4B0121180002F013F8194B90221205CC
S11307601A60174B0A22DA61154B0122DA60144B26
S113077000225A62134B144A1A60124B134ADA616C
S1130780104B134A1A64134B812252041A613B1D05
S1130790114A1900100001F0C1FB0220FFF7C4FE4A
S11307A0C046BD4607B090BD0C5500004081040012
S11307B0000204000012040000800C400042040007
S11307C000000140000401400000010AFFFF000096
S11307D00100100A00C00C400010004080B582B037
S11307E000AF114B7B60114B1B7801225340DBB2ED
S11307F0002B14D00D4B01221A700CE07B681B688F
S1130800984703003B603B68002B01D03B6807E03E
S11308107B6804337B607B681B68002BEED100236C
S11308201800BD4602B080BD0C0000209C020020D0
S113083080B584B000AF78603960104B1B7801221A
S11308405340DBB2002B02D00D4BFB6011E07B6800
S1130850002B0CDC7B682C225A430A4BD1183B68D2
S11308602C22180003F01AFE0023FB6001E0064B63
S1130870FB60FB681800BD4604B080BD9C020020EC
S113088005001180700200200200118080B584B040
S113089000AF7860124B1B7801225340DBB2002B6F
S11308A002D0104BFB6016E00F4B1B68002B10DCD2
S11308B00D4B1B68591C0C4A11602C225A430B4BDC
S11308C0D31879682C22180003F0E8FD0023FB609C
S11308D001E0074BFB60FB681800BD4604B080BD17
S11308E09C02002005001180A0020020700200205C
S11308F00100118080B58CB000AF00F0BFFA00F0A9
S113090057FA00F0D7FA002300220F21022000F04A
S1130910E3FA002300220721032000F0DDFA00237C
S113092000220B21042000F0D7FA00230022082122
S1130930002000F0D1FA002300220A21002000F058
S1130940CBFA002300220A21042000F0C5FA402239
S11309500A21042000F00CFB0300FB62FB6A002B5D
S113096001D0FB6A35E03B001C4A1A603B000122BF
S11309701A743B0000225A743B0080225A603B00E8
S11309808022DA603B005A683B009A603B00144ABC
S11309905A613B00134A9A613B00134ADA613B00F7
S11309A0124A1A623B00124A5A623B00114A9A6286
S11309B03B001800FFF76AFF0300FB62FB6A002B91
S11309C006D13B000121180000F025F800F044F89E
S11309D0FB6A1800BD460CB080BDC046205500001F
S11309E0170A0000A50A00000D0B0000850B00008B
S11309F0250B0000F909000080B584B000AF7860D1
S1130A000023FB6000F03AFA00F0D2F9FB6818000A
S1130A10BD4604B080BD80B582B000AF78600A00E6
S1130A20FB1C1A70FB1C1B78002B08D0082100202B
S1130A3000F078FA0A21002000F074FA07E00A2195
S1130A40002000F082FA0821002000F07EFA002342
S1130A501800BD4602B080BD80B582B000AF0B2146
S1130A60042000F05FFA062000F014FA0C4B1B7807
S1130A7004221343DBB29AB2BB1D1A80BB1D0221B0
S1130A80180000F0C1F9022000F004FA0B21042040
S1130A9000F05BFA00231800BD4602B080BDC046DA
S1130AA0A402002080B586B000AFF860B9607A6017
S1130AB03B60BB68DA087B6853437B61BB68802B6F
S1130AC001D00E4B16E00E4B1A687B69D2180D4B01
S1130AD09A4204D93B6800221A600B4B0AE0084B87
S1130AE01A683B681A60064B1A687B69D218044B73
S1130AF01A6000231800BD4606B080BD02001180B4
S1130B0014000020280300200100118080B582B069
S1130B1000AF78603960024B1800BD4602B080BD5A
S1130B200400118080B588B000AFF860B9607A60C5
S1130B303B60BB68FB61FB681B7C012B04D11B235E
S1130B40FB1800221A7003E01B23FB18FF221A7003
S1130B5000237B610DE01B23FB181978FB6910222D
S1130B60180003F0A4FCFB691033FB617B690133BB
S1130B707B617A693B689A42EDD300231800BD4635
S1130B8008B080BD80B588B000AFF860B9607A6005
S1130B903B60BB68BB61BB6A0133BB620B210420B1
S1130BA000F0C0F9062000F075F9BB6A9BB21B0285
S1130BB09BB2012213439AB216217B181A807B1828
S1130BC00221180000F020F90023FB612BE0BB692F
S1130BD01021180000F018F9BB691033BB61FB6ADF
S1130BE0013BFA699A4205D11623FB1801225242AD
S1130BF01A800FE0BB6A9AB2FB699BB2D3189BB20E
S1130C0001339BB21B029BB2FF2213439AB21623F9
S1130C10FB181A801623FB180221180000F0F4F8C0
S1130C20FB690133FB61FA69FB6A9A42CFD3022064
S1130C3000F030F90B21042000F087F9002318009C
S1130C40BD4608B080BD000080B582B000AF020090
S1130C503960FB1D1A70FB1D1B78002B1FD0FB1D78
S1130C601B78012B19D0FB1D1B78022B13D0FB1D05
S1130C701B78032B0DD0FB1D1B78042B07D0FB1D09
S1130C801B78052B01D13F230AE0002308E0134B16
S1130C9006E0134B04E0134B02E0134B00E0134B4C
S1130CA03A6813410122134005D1114A114B110036
S1130CB0180001F0F1F901223B689A4010000E4936
S1130CC0FB1D1A781300DB009B189B00CB18143310
S1130CD01860C046BD4602B080BDC046F0FF0000AB
S1130CE0FF010000FFFF0000F87900007FF700001B
S1130CF0DD030000385500000060004080B582B07C
S1130D0000AF02003960FB1D1A70FB1D1B78002B1D
S1130D101FD0FB1D1B78012B19D0FB1D1B78022B48
S1130D2013D0FB1D1B78032B0DD0FB1D1B78042B4C
S1130D3007D0FB1D1B78052B01D13F230AE00023BC
S1130D4008E0134B06E0134B04E0134B02E0134B93
S1130D5000E0134B3A6813410122134005D1114AB4
S1130D60114B1100180001F097F901223B689A40D9
S1130D7010000E49FB1D1A781300DB009B189B0022
S1130D80CB1810331860C046BD4602B080BDC046C3
S1130D90F0FF0000FF010000FFFF0000F8790000F1
S1130DA07FF700000C04000038550000006000408C
S1130DB090B589B000AF0023FB613B1D0D4A13CAF7
S1130DC013C313CA13C30C4B0121180001F0D8FC40
S1130DD03B1D0A4A9A603B1D094A1900100002F0A3
S1130DE0B5FB074B074A5A65FB691800BD4609B0B5
S1130DF090BDC046A055000000320400E0673500F5
S1130E0000C400400A03000080B584B000AF7860DD
S1130E1039600023FB6021E03B68012B03D07B6831
S1130E20012213400DD07B681B78134A190010006F
S1130E3002F044FC3B68013B3B607B6801337B6010
S1130E400CE07B681B880C4A1900100002F04BFC74
S1130E503B68023B3B607B6802337B603B68002B52
S1130E60DAD1C046044B1B6920221340FAD0FB6838
S1130E701800BD4604B080BD00C4004080B582B0F7
S1130E8000AF00237B6000F07FFE7B681800BD4646
S1130E9002B080BD80B584B000AF78600023FB60F1
S1130EA07B68180000F06AFFFB681800BD4604B0B8
S1130EB080BD000080B582B000AF00237B60054B8D
S1130EC00121180001F05CFC7B681800BD4602B0EB
S1130ED080BDC0460072040090B587B000AFF860D2
S1130EE0B9603B60FB1D1A7000237B61FB1D1B78FE
S1130EF0002B0FD113217B1804221A70C046FB6803
S1130F00D8B23C687B181A78B968230001F0EEFF68
S1130F107B6900E0024B1800BD4607B090BDC04697
S1130F200100138080B584B000AF7860396000237D
S1130F30FB607B68DBB23A6811001800FFF7DEFE45
S1130F40FB681800BD4604B080BD80B584B000AF16
S1130F50786039600023FB607B68DBB23A6811007B
S1130F601800FFF771FEFB681800BD4604B080BD91
S1130F7080B588B000AFF860B9607A600023FB6187
S1130F80A0239B03BB6101237B61154B0121180046
S1130F9001F0F6FB7A69BB691900022002F084F8BB
S1130FA0104B9B68104A1A400E4B802189000A435B
S1130FB09A600C4B9A680B4B04210A439A60FB68B5
S1130FC0D8B2B9680023042201F090FF7B681800AE
S1130FD000F020F8FB691800BD4608B080BDC0468B
S1130FE00042040000C00C40FFF8FFFF80B582B04F
S1130FF000AF7860064B0121180001F0C1FB7B684B
S11310000A21180001F060FDC046BD4602B080BD53
S11310100023020090B585B000AF78600C243B1922
S11310201C4A1188198092789A701B4B1800FFF79C
S1131030DDFF1A4B0221180001F0D0FA174B0121F1
S1131040180001F09DFB3B1900221A703B19002285
S11310505A703B1901229A703B19180002F0F0F8FB
S11310600E4B180001F0E6FB03007968180003F04A
S113107011F90300013B1B021B0A1900002002F0B6
S113108085F802F003F9012002F0AEF8C046BD462F
S113109005B090BDB855000002001E008006120085
S11310A080B582B000AF786000231800BD4602B05E
S11310B080BD80B582B000AF7860FEE780B582B0B5
S11310C000AF786039603B68802292015A60002347
S11310D01800BD4602B080BD80B582B000AF786014
S11310E001231800BD4602B080BD80B584B000AFB6
S11310F0F860B9607A6000231800BD4604B080BD72
S113110080B586B000AFF860B9607A6000237B6177
S11311100FE000F08FF803003B613B6901330ED010
S1131120BB685A1CBA603A69D2B21A707B6901333F
S11311307B617B685A1E7A60002BEAD100E0C046CE
S11311407B69002B02DC01235B4200E07B69180011
S1131150BD4606B080BD000080B584B000AF7860A5
S11311600A4B1B68002B02D1084B094A1A60074B33
S11311701B68FB60054B1A687B68D218034B1A6026
S1131180FB681800BD4604B080BDC046280300209B
S11311905005002080B586B000AFF860B9607A6071
S11311A000237B6109E0BB685A1CBA601B781800F5
S11311B000F048F87B6901337B617A697B689A4265
S11311C0F1DB7B681800BD4606B080BD80B58EB0EB
S11311D000AF0823FB1819000020FFF729FB0300C8
S11311E07B637B6B002B1BD13B0000221A603B000E
S11311F000221A713B0001225A710C4A3B00110073
S1131200180000F03DF803007B637B6B002B07D1D3
S1131210074B1B68986800230222002103F06AF937
S11312207B6B1800BD460EB080BDC0462C03002069
S11312303800002080B500AF01235B421800BD4692
S113124080BD000080B582B000AF0200FB1D1A70A3
S11312500A4B1B68002B0AD0084B1A68FB1D1B782D
S11312601900100000F0F2F8FB1D1B7801E00123C7
S11312705B421800BD4602B080BDC0462C0300206E
S113128090B587B000AF7860396000237B6100239C
S11312903B6116E0694A3B69552158204343D31802
S11312A05B181B7801225340DBB2002B06D03B694C
S11312B058225A43614BD3187B6105E03B690133E3
S11312C03B613B69002BE5DD7B69002B01D15C4B65
S11312D0AFE07B681A687B69043319001000FFF7DC
S11312E0A7FA0300BB60BB68002B01D0BB68A0E079
S11312F07B695B7D002B21D17B69DC697B69181DCF
S11313007B6999687B693C330822A0470300BB6072
S1131310BB68002B01D0BB688BE07B699C6A7B694E
S1131320181D7B69D96B7B699A680823A047030061
S1131330BB60BB68002B04D0BB687AE07B690022E9
S1131340DA63404B3A691201D2587B691B69DB08A6
S11313509A4201D93C4B6CE03A4A3B691B01D318D1
S113136004331C687B699B680621180002F092FF15
S113137003009C4201D9344B5BE0324B3A691201C1
S1131380D2587B695A632F4A3B691B01D318043333
S11313901A687B691A632B4A3B691B01D31808330B
S11313A01A687B691A64274A3B691B01D3180C33FA
S11313B01A687B695A647B681A687B691A607B685F
S11313C019797B69382299547B6859797B69392268
S11313D099540023FB600FE07B69196C7B691B6BDC
S11313E0FA685A437B69586CFB689B00C3188A18D7
S11313F01A60FB680133FB607B695B6BFA689A4295
S1131400EAD37B694822002199547B69492200214F
S113141099547B694A22002199547B69180000F091
S11314208FF87B695522012199543B687A691A60C7
S113143000231800BD4607B090BDC046300300200D
S113144005001280180000200200128080B584B0CC
S113145000AF78600A00FB1C1A707B68FB60FB68B5
S113146055229B5C01225340DBB2002B01D0334B4D
S113147060E0FB685B7D002B04D1FB6854220121F2
S1131480995403E0FB68542202219954FB683822E2
S11314909B5C002B0FD0FB68DB6C002B17D1FB6827
S11314A01A6DFB685B6B013B9A4210D1FB685422B6
S11314B0002199540BE0FB68DB6C002B07D1FB681F
S11314C01B6D002B03D1FB68542200219954FB1C93
S11314D01B780C2B0DD1FB68180000F031F8FB6869
S11314E0542200219954FB68180000F091FA03007B
S11314F020E0FB6839229B5C002B08D0FB1C1B7886
S11315000A2B04D1FB680D21180000F07FF8FB1CA6
S11315101A78FB681100180000F078F8FB68542270
S11315209B5C032B05D0FB68180000F071FA0300E4
S113153000E000231800BD4604B080BD0600128000
S113154080B582B000AF78607B685B6C002B14D0F0
S11315507B68186C7B685A6B7B681B6B53431A005F
S1131560002102F0A4FF7B680022DA647B68002279
S11315701A657B68542200219954C046BD4602B0C6
S113158080BD000080B584B000AF78600023FB60AC
S113159014E07B685A6CFB689B00D31818687B685E
S11315A05A6CFB6801339B00D31819687B681B6B6A
S11315B01A0002F073FFFB680133FB607B685B6B0E
S11315C0013BFA689A42E4D37B685A6C7B685B6B94
S11315D00D498C4663449B00D31818687B681B6BC9
S11315E01A00002102F063FF7B680022DA647B6842
S11315F05B6B5A1E7B681A657B68542200219954E0
S1131600C046BD4604B080BDFFFFFF3F80B582B039
S113161000AF786039603B680A2B08D00D2B02D0EC
S1131620082B27D03BE07B680022DA6482E07B68E9
S11316301B6D5A1C7B681A657B680022DA647B6820
S11316401A6D7B685B6B9A4200D272E07B68382229
S11316509B5C002B09D07B681800FFF793FF7B6825
S11316605B6B5A1E7B681A6563E07B681800FFF7A2
S113167067FF5EE07B681B7D002B10D07B681B7DC1
S1131680012B0CD07B684822FF2199547B684922A6
S1131690002199547B684A22002199544AE002F0BF
S11316A0DDFE02003B680133D3181B781A00972330
S11316B0134001D120233B607B68DA6C7B681B6B91
S11316C09A4207D37B680022DA647B681B6D5A1C3C
S11316D07B681A657B681A6D7B685B6B9A4212D3D0
S11316E07B6838229B5C002B09D07B681800FFF7CD
S11316F049FF7B685B6B5A1E7B681A6503E07B6855
S11317001800FFF71DFF3B68DAB27B68596C7B68F1
S11317101B6D9B00CB1819687B68DB6CCB18203AD7
S1131720D2B21A707B68DB6C5A1C7B68DA64C046E0
S113173000E0C046BD4602B080BD0000B0B592B026
S113174002AF786039607B68DB6B7B630023BB632B
S11317503BE10023FB6377E07B685A6C3B689B00AA
S1131760D3181A68FB6BD2180F217B1812781A70E1
S11317707B181A78BB6B64214B43D2183323FB18B4
S1131780A1498A5C1A707B681B7D002B08D056DB4C
S1131790022B54DC3322BB18BA181278D2431A70C5
S11317A0FA6B13005B009B185B00BB60BB68BB62F9
S11317B03FE03323FB181B780122134017D0BB6A88
S11317C0DB101A007B6B9B181B785AB2BB6A07218B
S11317D00B40012199400B005BB213435AB2BB6A20
S11317E0DB1019007B6B5B18D2B21A7018E0BB6A6D
S11317F0DB101A007B6B9B181B785BB2BA6A07215B
S11318000A40012191400A0052B2D24352B213401D
S11318105AB2BB6ADB1019007B6B5B18D2B21A7028
S11318203322BB18BA18127852081A70BB6A0133F3
S1131830BB62BB680633BA6A9A42BADB01E0734BF7
S1131840DDE0FB6B0133FB637B681B6BFA6B9A4235
S113185082D37B681B7D013B012B38D8FA6B1300C4
S11318605B009B185B007B627B6A07221340BB61B1
S1131870BB69002B1CD07B6ADB101A007B6B9B18A6
S11318801B785AB20121BB6999400B00DBB25B4261
S1131890DBB25BB213435AB27B6ADB1019007B6B79
S11318A05B18D2B21A707A6ABB69D31A08337B62A6
S11318B07B6ADB101A007B6B98187B689A687B6ADA
S11318C0D31ADB081A00FF2102F0F1FD00E0C04644
S11318D07B681B7D022B6FD17B6848229B5CDB09F4
S11318E0DBB25AB27B6849215B5C9B115BB202217B
S11318F00B405BB213435AB27B684A215B5C5B11B9
S11319005BB204210B405BB213435AB21723FB189A
S11319101A707B6B3B617B689B68DB08013B3B6215
S113192047E00023FB620023FB611CE03B6A3A6949
S1131930D3181B781A00FB691A41130001221340C3
S113194003D11723FB181A7800E00722F9690B006A
S11319505B005B189A4013001A00FB6A1343FB6296
S1131960FB690133FB61FB69072BDFDD3A6A130076
S11319705B009B181A003B699B18FA6AD2B21A7072
S1131980FB6A190A3A6A13005B009B1801333A692F
S1131990D318CAB21A70FB6A190C3A6A13005B00B6
S11319A09B1802333A69D318CAB21A703B6A013BD6
S11319B03B623B6A002BB4DA7B68DB68DB087A6B3A
S11319C0D3187B63BB6B0133BB63BB6B072B00D8A2
S11319D0BFE67B685C6A7B68181D7B68D96B7B6893
S11319E01A6B13005B009B185B001D003B68DB0057
S11319F00822019200932B000022A0470300180044
S1131A00BD4610B0B0BDC046BC55000004001280F5
S1131A1090B587B002AF78607B6854229B5C012B41
S1131A2000D175E0022B00D181E0002B02D0C0462A
S1131A3000237DE07B685B7D002B66D10023FB6087
S1131A4008E0FA687B6811001800FFF777FEFB686E
S1131A500133FB607B685B6BFA689A42F1D37B6865
S1131A605B6BDA007B681B699A4250D27B681B7DF2
S1131A70012B0DD0022B15D0002B20D17B68D86B05
S1131A807B689B68DB081A00002102F010FD18E057
S1131A907B68D86B7B689B68DB081A00FF2102F027
S1131AA006FD0EE07B68D86B7B689A6813005B00C8
S1131AB09B18DB081A00FF2102F0F9FC01E01E4B21
S1131AC036E07B685B6BDB00FB6018E07B685C6A7C
S1131AD07B68181D7B68D96B7B689A680123019326
S1131AE0FB68009313000022A0470300BB60BB689F
S1131AF0002B01D0BB681BE0FB680133FB607B68F3
S1131B001B69FA689A42E1D301E00B4B10E0C0462E
S1131B107B685B7D002B08D17B681A6D7B681100A4
S1131B201800FFF70BFE030002E0034B00E0024B3A
S1131B301800BD4605B090BD0400128080B582B087
S1131B4000AF0200FB1D1A70FB1D1B787F2B0AD807
S1131B50FB1D1B781A001F231340054901229A40DC
S1131B60C0235B00CA50C046BD4602B080BDC0461B
S1131B7000E100E080B500AF024B5B681800BD4691
S1131B8080BDC04600000840B0B58AB000AF27232E
S1131B90FB1800221A702623FB1800221A70252332
S1131BA0FB1800221A702423FB1800221A70232326
S1131BB0FB1800221A703B006A4A11881980927837
S1131BC09A700023FB610023BB6100237B61002327
S1131BD03B61654B1B6C0422134008D1634B01210C
S1131BE0180000F0CDFD2723FB1801221A700F25E1
S1131BF07C195F4B180000F0BDFE030023707B19B5
S1131C001B78032B03D02523FB1801221A70564B93
S1131C10DB6A4022134003D12423FB1801221A70EB
S1131C20534B0321180000F04FFF524B180000F0F3
S1131C3057FC0300BB6080235B004E4A1900100070
S1131C4000F0CCFC484B9B6D0122134008D1494B5A
S1131C500121180000F094FD2623FB1801221A70BC
S1131C6001F076F803007B60434B1B6801221340AC
S1131C701BD0414B1B68FB613F4B9B68BB613E4BD8
S1131C80DB687B613C4BDB693B613B4B00221A60A8
S1131C90394B0022DA61384B07229A610C20FFF796
S1131CA04DFF2323FB1801221A703B0000229A7077
S1131CB03B00180001F0C4FA00F07CF87B681800BF
S1131CC001F054F82323FB181B78002B18D0BB68B1
S1131CD0284A1900100000F081FC012001F098FA54
S1131CE0254BBA699A60244B7A69DA60224BFA6907
S1131CF01A60214B3A69DA61002001F089FA02E0A6
S1131D00002001F071FA2623FB181B78002B04D065
S1131D10184B0021180000F033FD2523FB181B7815
S1131D20002B07D00F23FB181B78114A1900100051
S1131D3000F0CAFE2423FB181B78002B04D00022D9
S1131D400021012000F09AFF2723FB181B78002BA9
S1131D5004D0064B0021180000F012FDC046BD4619
S1131D600AB0B0BDDC58000000800C400023020023
S1131D7002001E00800612000000084080B582B0F8
S1131D8000AF78607B680A49002B0CD0013B8822A5
S1131D901202003253430A68D80AD20A5043800917
S1131DA001D00138FDD8C046BD4602B080BDC04652
S1131DB02800002080B584B000AF0823BB60344BFA
S1131DC0802252011A601CE000F064F803007B607A
S1131DD0C04600F05FF802007B689342F9D000F03F
S1131DE059F803007B602A4B1B68180000F05AF86E
S1131DF000F050F802007B68D31A7B607B68002BEC
S1131E0006D1234B1B685B00214A1360DCD100E040
S1131E10C0461F4B1B685A081D4B1A601C4B1B689D
S1131E20FB6026E01A4B1A68FB681A43184B1A60C9
S1131E3000F030F803007B60C04600F02BF802008D
S1131E407B689342F9D000F025F803007B60104BC7
S1131E501B68180000F026F800F01CF802007B68EC
S1131E60934206D0FB68DA43094B1B681A40084BBF
S1131E701A60BB685A1EBA60002B05D0FB685B0869
S1131E80FB60FB68002BCDD1C046BD4604B080BDCD
S1131E902800002080B500AFFFF76CFE0300180097
S1131EA0BD4680BD80B582B000AF78607B68013BE1
S1131EB0FDD8C046BD4602B080BD80B586B000AF37
S1131EC0F860B9607A60FB681B687B610122BB68BB
S1131ED09A401300DB431A007B691A407B68012196
S1131EE01940BB6899400B001A43FB681A60C0464E
S1131EF0BD4606B080BD80B584B000AFF860B9605F
S1131F007A60FB681B68BA68D2431A407B681A433C
S1131F10FB681A60C046BD4604B080BD80B582B07F
S1131F2000AF786039607B68254A934204D0254B22
S1131F30A821180000F0B0F83B68DB683F2B04D9F7
S1131F40204BD121180000F0A7F83B685B680F2BE9
S1131F5004D91C4BD321180000F09EF83B681B7871
S1131F60DA073B685B789B0713431A003B685B689E
S1131F701B0613433A68127A120213433A68527AE0
S1131F8012011A437B681A603B689B7A1B071A008C
S1131F903B68DB7A1B041A433B68DB681B02134370
S1131FA0094A1A437B685A6078683B681B7C1A00AC
S1131FB00021FFF782FFC046BD4602B080BDC04687
S1131FC000100040E0580000B000000180B582B06D
S1131FD000AF78600A00FB1C1A707B680E4A9342BB
S1131FE004D00E4BFB21180000F056F8FB1C1B78A4
S1131FF0072B04D9094BFF21180000F04DF87B682A
S1132000181DFB1C1B781A000721FFF774FFC0463C
S1132010BD4602B080BDC04600100040E05800003C
S113202080B582B000AF78607B680A4A934206D0DC
S113203092235A00084B1100180000F02DF87B6819
S11320401B68012293431A007B681A60C046BD4690
S113205002B080BD00100040E058000080B582B09E
S113206000AF78607B680A4A934206D09D235A00E9
S1132070084B1100180000F00FF87B681B68012260
S11320801A437B681A60C046BD4602B080BDC04694
S113209000100040E058000080B582B000AF7860C6
S11320A03960FEE780B586B000AFF860B9607A6049
S11320B0FB681B687B610122BB689A401300DB4309
S11320C01A007B691A407B6801211940BB6899405A
S11320D00B001A43FB681A60C046BD4606B080BDBB
S11320E080B582B000AF786039607B681A683B685D
S11320F0DA401300012213401800BD4602B080BD2F
S113210080B582B000AF78607B681F2B06D9962318
S11321105A00064B11001800FFF7BEFF01227B682E
S11321209A4013001800BD4602B080BD4859000013
S113213080B584B000AF78607B68002B04D07A68E7
S113214080231B029A4205D9094A0A4B1100180040
S1132150FFF7A2FF786802F029F90300DBB21A0046
S11321601F239B1AFB60FB681800BD4604B080BDAA
S1132170990A0000B059000080B500AF034BDB6C36
S11321801B0EDBB21800BD4680BDC046B081E00F17
S113219080B582B000AF254B5A69E023DB001340C1
S11321A08022920093421ED080229200934206D84D
S11321B0002B26D08022520093421FD027E0C02259
S11321C09200934204D0E022D20093421CD01EE03D
S11321D0FFF7D2FF0300122B02D9154B7B601FE0DF
S11321E0144B7B601CE0FFF7C7FF0300122B02D9DE
S11321F0114B7B6014E0114B7B6011E0104B7B6052
S11322000EE0104B7B600BE00F4B7B6008E000237B
S11322107B600E4A0E4B11001800FFF73DFFC046CD
S11322207B681800BD4602B080BDC04600800C40EB
S1132230804F120040420F0040B56400C0CF6A00D6
S1132240C0D8A700809FD500406F4001980C0000C3
S1132250185A000090B583B000AFFC1C114B180055
S113226000F088FB03002370FB1C1B78072B06D0AF
S1132270092B09D1FEF7CEF803007B600DE0FFF7D0
S113228087FF03007B6008E000237B60064A074B5E
S113229011001800FFF700FFC0467B681800BD4618
S11322A003B090BD06000E00D20C0000185A0000C6
S11322B080B584B000AF786039600F4B5B6807224B
S11322C01340FB607B680D4A934202D80023FB60F5
S11322D005E07B680A4A934201D80123FB60064B60
S11322E05B68072293431900034BFA680A435A6058
S11322F0C046BD4604B080BD00000C400024F4007C
S11323000048E80180B582B000AF0D4BDA6BFB1DCD
S1132310511E8A411A700A4B0A4ADA63FEF772F8B0
S1132320030000211800FFF7C3FFFB1D1B78002BDF
S113233002D0034B0022DA63C046BD4602B080BD22
S113234000000C40711B000090B585B000AF7860B0
S113235039600D4BDA6B0F243B19511E8A411A70F8
S1132360094B0A4ADA633A687B6811001800FFF7E0
S11323709FFF3B191B78002B02D0034B0022DA632A
S1132380C046BD4605B090BD00000C40711B000066
S113239080B584B000AF78600023BB607B683A4AA4
S11323A093420AD0394A934207D0F1231A01384B99
S11323B011001800FFF770FE00E0C0467B681800AB
S11323C000F0D8FA0300FB607B682F4A934203D0E5
S11323D02E4A934206D00CE02E4B9B6A03221340F4
S11323E0FB600DE02B4B9B6A9B0803221340FB60B0
S11323F006E0294A264B11001800FFF74DFEC0469F
S1132400FB68012B05D014D3022B07D0032B0AD071
S11324102AE0FEF771F80300BB602FE0FEF77AF8BC
S11324200300BB602AE0FDF7D1FF03005B08BB603B
S113243024E00023BB607B68134A934203D07B688B
S1132440124A934219D1134B9A6A7B680E498B4204
S113245001D1102300E01423DA40131E0DD0FEF73F
S113246052F80300BB6008E00023BB600B4A084B32
S113247011001800FFF710FE00E0C046BB6818000A
S1132480BD4604B080BDC04602001E00030020000B
S1132490185A000000800C403F0F00006A0F000033
S11324A080B582B000AF7860074B5B6D01221340AA
S11324B006D1C046044B1B6D7A681340FAD100E084
S11324C0C046BD4602B080BD00800C4080B500AF60
S11324D0C046BD4680BD80B500AFC046BD4680BD88
S11324E080B584B000AF78607B681B090F2213406D
S11324F0BB60BB68072B14D002D8042B05D050E076
S1132500082B1AD0092B32D04BE02D4B9B680F229D
S11325101340FB60FB681800FFF7F2FD0300FB604B
S113252048E0274B5B680F221340FB60FB681800F0
S1132530FFF7E6FD0300FB603CE07B68214A934221
S11325400BD11F4B9B6E0F221340FB60FB681800DE
S1132550FFF7D6FD0300FB6008E00123FB601A4A85
S11325601A4B11001800FFF797FDC04622E07B6864
S1132570174A93420BD1124B1B6F03221340FB608B
S1132580FB681800FFF7BCFD0300FB6008E00123B3
S1132590FB60104A0D4B11001800FFF77DFDC0468B
S11325A008E00123FB600C4A084B11001800FFF7F8
S11325B073FDC046FB681800BD4604B080BDC0462C
S11325C000800C40800612002B120000185A0000F4
S11325D090071A00441200004B12000080B584B02A
S11325E000AF786039607B681B090F221340FB60E1
S11325F0FB68072B27D002D8042B06D09EE0082BBB
S11326004AD0092B00D171E098E03B68002B04D03C
S11326103A6880239B009A4205D94E4A4E4B1100DA
S11326201800FFF739FD3B681800FFF781FD030030
S11326303B604A4B9B680F2293431900474B3A680F
S11326400A439A6081E03B68002B04D03A688023F7
S11326509B009A4205D9424A3F4B11001800FFF7EC
S11326601BFDFFF74FFE3B681800FFF761FD0300F9
S11326703B603A4B5B680F2293431900374B3A682F
S11326800A435A60FDF7A2FE0300BB60BB68002149
S11326901800FFF759FE58E07B68324A93421DD177
S11326A03A6880231B029A4205D92F4A2A4B11000B
S11326B01800FFF7F1FC0420FFF7F2FE3B68180056
S11326C0FFF736FD03003B60244B9B6E0F229343C0
S11326D01900224B3A680A439A6606E0234A1E4BC5
S11326E011001800FFF7D8FCC0462EE07B68204A92
S11326F093421BD13B68082B05D91E4A164B110087
S11327001800FFF7C9FC4020FFF7CAFE3B68180019
S1132710FFF70EFD03003B60104B1B6F0322934336
S113272019000E4B3A680A431A6706E0124A0A4B2C
S113273011001800FFF7B0FCC04606E00F4A064B34
S113274011001800FFF7A8FCC046C046BD4604B0FF
S113275080BDC0468B120000185A000000800C4057
S11327609312000080061200AE120000E91200006D
S113277090071A00F21200000F1300001513000056
S113278080B586B000AF78600A00FB1C1A70002385
S11327903B617B681B0A0F2213400A2B1AD89A004C
S11327A01B4BD3181B689F461A4B7B6119E01A4BCD
S11327B07B6116E0194B7B6113E0194B7B610123AC
S11327C03B610EE0174B7B6110233B6109E0164B24
S11327D07B6106E0154A164B11001800FFF75CFCFC
S11327E012E07B681B0B1F221340FB603B69002B2C
S11327F003D03B691800FFF753FEFB1C1A78F968F5
S11328007B691800FFF74EFCBD4606B080BDC0468C
S1132810805A000040800C4008800C4044800C40EA
S113282058800C4060800C4078800C409B13000062
S1132830185A000080B584B000AF78607A68F82335
S11328409B03134080225203934200D175E08022FF
S11328505203934213D880229202934237D08022AB
S11328609202934202D8002B1FD06BE08022D20246
S113287093421FD0E0221203934259D062E0D02247
S11328805203934245D0D0225203934204D890225B
S11328905203934227D055E0F022520393421BD0B7
S11328A08022920393422DD04CE0FDF7B3FD030048
S11328B0FB6050E0FDF7AEFD0300FB60284B9B6816
S11328C00F221340FA68DA401300FB6043E0FDF77F
S11328D07DFD0300FB603EE0224B1800FFF758FD2E
S11328E00300FB6037E01F4B1800FFF751FD0300A6
S11328F0FB601B4B9B6E0F221340FA68DA401300F7
S1132900FB6028E0184B1800FFF742FD0300FB6052
S113291021E0154B1800FFF73BFD0300FB60104B53
S11329201B6F03221340FA68DA401300FB6012E0C5
S1132930FFF790FC0300FB600DE0FFF729FC0300A8
S1132940FB6008E00023FB60084A094B11001800F3
S1132950FFF7A2FBC046FB681800BD4604B080BD6B
S113296000800C4002001E0003002000C11400007F
S1132970185A000080B584B000AF78600F23FB18AC
S113298001221A707B680F221340BB60BB68022BC4
S113299030D002D8012B06D07DE0032B50D0062B7B
S11329A000D173E077E0454BDA6AF0239B011340D2
S11329B08022520193420DD080229201934204D08E
S11329C08022120193420AD00EE00F23FB18022248
S11329D01A700EE00F23FB1803221A7009E00F236C
S11329E0FB1804221A7004E00F23FB1805221A7046
S11329F0C0465BE0314B9B6A03221340022B08D094
S1132A00032B0BD0012B0ED10F23FB1803221A70BA
S1132A1015E00F23FB1802221A7010E00F23FB1895
S1132A2006221A700BE0254B9A6A80235B0213403E
S1132A3004D00F23FB180A221A7000E0C04635E0C8
S1132A401E4B9B6A0C221340082B08D00C2B0BD076
S1132A50042B0ED10F23FB1803221A7015E00F2349
S1132A60FB1802221A7010E00F23FB1806221A70BA
S1132A700BE0124B9A6A80235B03134004D00F23AC
S1132A80FB180A221A7000E0C0460FE00F23FB185F
S1132A9007221A700AE00F23FB1800221A70084A52
S1132AA0084B11001800FFF7F7FAC0460F23FB1874
S1132AB01B781800BD4604B080BDC04600800C40A1
S1132AC0E8180000185A000080B588B000AF78609C
S1132AD00A00FB1C1A700323FB611B23FB1803224F
S1132AE01A7000233B617B680F221340FB60FB6874
S1132AF0012B05D000D2A0E0032B00D99DE04DE0CE
S1132B00FB1C1B780A2B27D89A00514BD3181B683F
S1132B109F460423FB611B23FB1800221A7022E04A
S1132B200323FB611B23FB1801221A701BE0022301
S1132B30FB611B23FB1802221A7014E00123FB61C2
S1132B401B23FB1803221A700DE0424A424B11006A
S1132B501800FFF7A1FA77E0404A3F4B1100180034
S1132B60FFF79AFA70E01B23FB181B78012201215E
S1132B70180000F083F8FFF7C5FBFFF7A7FC384BFC
S1132B80FA695A62FDF722FC0300BB60BB680021AE
S1132B901800FFF7D9FBFFF79EFC55E0FB1C1B78E0
S1132BA00A2B25D89A002F4BD3181B689F46002365
S1132BB07B6124E001220121002000F05FF8022360
S1132BC07B611CE001220121012000F057F8012360
S1132BD07B6114E0244B012202211800FFF762FA02
S1132BE003237B610BE000237B6101233B6106E04F
S1132BF01E4A194B11001800FFF74EFA24E0FB6837
S1132C00022B0CD1164B9B6A194A1A407B691A4352
S1132C1011003B691A04124B0A439A6214E0104BE8
S1132C209B6A144A1A407B699B001A4311003B6952
S1132C301A050B4B0A439A6206E00F4A064B110031
S1132C401800FFF729FAC046BD4608B080BDC0464B
S1132C50AC5A0000A9190000185A0000AE1900006F
S1132C6000800C40D85A000040800C40591A0000E3
S1132C70FCFFFEFFF3FFEFFFE91B000090B587B0F8
S1132C8000AF040008001100FB1D221C1A70BB1DBC
S1132C90021C1A707B1D0A1C1A70FB1D1B78042B66
S1132CA029D89A00254BD3181B689F4601233B6102
S1132CB00223FB6001237B6124E004233B6108239E
S1132CC0FB6003237B611DE010233B612023FB6039
S1132CD005237B6116E040233B618023FB600723CF
S1132CE07B610FE080235B003B6180239B00FB60E2
S1132CF009237B6106E0124A124B11001800FFF70A
S1132D00CBF917E0BB1D1B78002B10D00E4B3A6992
S1132D101A627B1D1B78002B0CD0C0467B690B4AC2
S1132D2019001000FFF7DCF9031EF7D002E0064B90
S1132D30FA681A62BD4607B090BDC046045B000045
S1132D40EF1F0000185A000000800C402C800C403B
S1132D5080B582B000AFEFF310833B603B687B60CB
S1132D6072B67B681800BD4602B080BD80B582B0E3
S1132D7000AF78607B68002B00D162B6C046BD46C8
S1132D8002B080BD80B582B000AF02003960FB1D87
S1132D901A70FB1D1B78002B1FD0FB1D1B78012B09
S1132DA019D0FB1D1B78022B13D0FB1D1B78032BA2
S1132DB00DD0FB1D1B78042B07D0FB1D1B78052BA6
S1132DC001D13F230AE0002308E0134B06E0134B34
S1132DD004E0134B02E0134B00E0134B3A68134139
S1132DE00122134005D1114A114B11001800FFF7BD
S1132DF053F901223B689A4010000E49FB1D1A78D2
S1132E001300DB009B189B00CB1814331860C046DA
S1132E10BD4602B080BDC046F0FF0000FF010000C7
S1132E20FFFF0000F87900007FF70000DD030000D9
S1132E30185B00000060004080B582B000AF020063
S1132E403960FB1D1A70FB1D1B78002B1FD0FB1D66
S1132E501B78012B19D0FB1D1B78022B13D0FB1DF3
S1132E601B78032B0DD0FB1D1B78042B07D0FB1DF7
S1132E701B78052B01D13F230AE0002308E0134B04
S1132E8006E0134B04E0134B02E0134B00E0134B3A
S1132E903A6813410122134005D1114A114B110024
S1132EA01800FFF7F9F801223B689A4010000E4918
S1132EB0FB1D1A781300DB009B189B00CB18103302
S1132EC01860C046BD4602B080BDC046F0FF000099
S1132ED0FF010000FFFF0000F87900007FF7000009
S1132EE00C040000185B00000060004090B585B041
S1132EF000AFB96011007B600F243B19021C1A70EB
S1132F000E23FB180A1C1A703B191B78002B24D0C3
S1132F100F23FB181B78012B1DD00F23FB181B78E4
S1132F20022B16D00F23FB181B78032B0FD00F2373
S1132F30FB181B78042B08D00F23FB181B78052BD8
S1132F4001D13F230AE0002308E04F4B06E04F4B3A
S1132F5004E04F4B02E04F4B00E04F4BBA68134183
S1132F600122134006D18E235A004C4B1100180045
S1132F70FFF792F80E23FB181B78002B13D07B6805
S1132F80002B08D0BA680F23FB181B781100180017
S1132F90FFF752FF07E0BA680F23FB181B781100F4
S1132FA01800FFF7EFFEBB68072B25D83C490F2418
S1132FB03B191A781300DB009B189B00CB180433D1
S1132FC01B68BA6892000F2191400A00D243134053
S1132FD00E22BA181178BA68920091400A001100C2
S1132FE02F483A19127819431300DB009B189B00F1
S1132FF0C318043319602AE029490F243B191A78AD
S11330001300DB009B189B00CB1808331B68BA68BD
S113301024498C46624492000F2191400A00D24315
S113302013400E22BA181178BA681E4884466244C6
S1133030920091400A00110019483A191278194374
S11330401300DB009B189B00C318083319600E2380
S1133050FB181B78002B13D17B68002B08D0BA68AF
S11330600F23FB181B7811001800FFF7E5FE07E09B
S1133070BA680F23FB181B7811001800FFF782FEB3
S1133080C046BD4605B090BDF0FF0000FF01000042
S1133090FFFF0000F87900007FF70000805B00006C
S11330A000600040F8FFFF3F80B584B000AFF860D7
S11330B0B9607A60BA687B681A43FB68002118001B
S11330C000F004F8C046BD4604B080BD80B586B0AB
S11330D000AFF8607A600B203B180A1C1A707B68FA
S11330E0184A13407B613B181B78002B14D1FB68F2
S11330F0032B07D99A23FF331A00134B110018002E
S1133100FEF7CAFF11497B69802252051A43FB6806
S113311004339B005A5010E0FB68032B07D9A0230B
S1133120FF331A00084B11001800FEF7B5FF0749DA
S1133130FB6804339B007A695A50C046BD4606B00A
S113314080BDC04607003F00E85B000000C00C40A3
S113315080B586B000AFF860B9607A60FB681B6820
S11331607B610122BB689A401300DB431A007B6930
S11331701A407B6801211940BB6899400B001A432F
S1133180FB681A60C046BD4606B080BD80B584B0F9
S113319000AF786039607B68012B04D90F4BAA21FA
S11331A01800FEF779FF3B681B0E1B0604D00B4B7F
S11331B0AF211800FEF770FF7B68002B02D0012BB3
S11331C003D008E0064BFB6002E0064BFB60C04600
S11331D0FB683A681A60BD4604B080BD505C0000CC
S11331E0080008400C00084080B582B000AF02001F
S11331F0FB1D1A70FB1D1B7804481A000021FFF701
S1133200A7FFC046BD4602B080BDC04600000840CE
S113321080B582B000AF0200FB1D1A70FB1D1B7845
S1133220002B03D0054B01221A6202E0034B00225B
S11332301A62C046BD4602B080BDC04600000840C8
S113324080B584B000AF78607B681B78002B02D017
S11332500123FB6001E00023FB607B685B78002BAB
S113326003D0FB6802221343FB607B689B78002B2E
S113327003D0FB6804221343FB60034BFA681A6013
S1133280C046BD4604B080BD0000084080B500AF14
S11332900020FFF7A9FF0120FFF7A6FFC046BD46A7
S11332A080BD000080B582B000AF78607B68094AB9
S11332B0934203D07B68084A934201D1012300E082
S11332C000231A1C01231340DBB21800BD4602B0D0
S11332D080BDC046000001400004014080B584B0B8
S11332E000AF786039607B681800FFF7DBFF031ECE
S11332F004D1384BA0211800FEF7CEFE0023FB605A
S11333003B681B7801225340DBB2002B02D07B6860
S113331002225A607B6800225A623B689B781A0634
S11333203B68DB781B041A433B689B799B021A4376
S11333303B68DB791B0213433A68127A1A433B68F1
S11333405B78002B01D0402300E000231A433B6844
S11333505B7A002B01D0802300E000231A433B68F2
S11333609B7A002B01D0202300E000231A433B6802
S1133370DB7A002B01D0102300E000231A433B68C2
S11333801B7B002B01D0082300E000231343FB60C8
S11333903B681B79002B02D080239A0100E00022B5
S11333A03B685B79002B02D080235B0500E000239F
S11333B01343FA681343FB607B68FA681A603B683E
S11333C01B78002B02D07B6801225A60C046BD46A0
S11333D004B080BDB85C000080B584B000AFF86074
S11333E0B9607A60FB681800FFF75CFF031E04D124
S11333F02B4BEC211800FEF74FFEBB68022B04D9BF
S1133400274BED211800FEF747FE7B681B789A06D0
S11334107B685B781B061A437B689B781B041A4302
S11334207B68DB781B031A437B681B799B021A4376
S11334307B685B791B0213437A6892791A437B6831
S1133440DB79002B02D080239B0300E000231A4386
S11334507B681B7A002B02D080235B0300E00023EF
S11334601A437B685B7A002B01D0102300E0002311
S11334701A437B689B7A002B01D0042300E00023CD
S11334801A437B68DB7A1B071A431100FB68BA688E
S113349003321201D150C046BD4604B080BDC046BF
S11334A0B85C000080B582B000AF78600A00FB1CF5
S11334B01A70FB1C1B7810221343DBB21A007B68C2
S11334C09A65C046BD4602B080BD000080B586B096
S11334D000AFF860B9607A607B68002B05D1174AA9
S11334E0174B11001800FEF7D7FDBB68002B05D160
S11334F0144B1800FFF79EF90300BB60BB685A1E0B
S11335007B685B001900100000F0C4FE03007B61BF
S11335107B691B027B617B690B4A134006D0A323A2
S11335209A00074B11001800FEF7B6FDFB687A6994
S11335305A61C046BD4606B080BDC0466F02000059
S1133540CC5C0000408104003F00E0FF80B582B005
S113355000AF786039607B68314A934205D0314AC4
S1133560314B11001800FEF797FD7B68180000F03E
S11335705DF87B681A683B681B8A01210B439BB288
S113358019003B689B7B002B02D08023DB0000E00A
S113359000230B431A437B681A607B681A683B68F4
S11335A01B7D002B02D080239B0500E000231A43DF
S11335B07B681A603B689B7C002B06D03B68DA7CF6
S11335C07B6811001800FFF76DFF3B681B7B1A0036
S11335D080235B011A437B685A603B6859683B68E7
S11335E09A687B681800FFF771FF3B685B7B002BD0
S11335F002D07B681022DA603B685B7D002B06D02A
S11336007B681B68802252021A437B681A603B68FD
S11336101B781A007B68DA60C046BD4602B080BDE4
S113362000C4004035030000CC5C000080B582B0CB
S113363000AF78607B681B4A934205D01A4A1B4B43
S113364011001800FEF728FD7B68194ADA607B68D0
S113365000221A607B68174A5A607B6800229A60CD
S11336607B6800225A617B680022DA647B68124A14
S11336709A647B6800225A657B680A4A934202D1A5
S11336807B6800221A657B6800229A657B68054A7C
S1133690934202D17B680022DA65C046BD4602B07F
S11336A080BDC04600C4004007040000CC5C00009C
S11336B0AA0E000005100000F91F000080B582B0BA
S11336C000AF78600A00FB1C1A70C0467B681B6957
S11336D040221340FAD0FB1C1A787B685A63C04618
S11336E0BD4602B080BD80B582B000AF78600A00EC
S11336F0BB1C1A80C0467B681B6940221340FAD069
S1133700BB1C1A887B68DA63C046BD4602B080BD24
S113371090B583B000AF02003960FB1D1A70FB1D29
S11337201B787F2B28D82F4AFB1D1B785BB29B0884
S1133730C0339B009B58FA1D1278110003220A40E3
S1133740D200FF2191400A00D2431A4011003B6885
S11337509B01FF221A40FB1D1B7818000323034022
S1133760DB009A401F48FB1D1B785BB29B080A4391
S1133770C0339B001A5031E01B4AFB1D1B78190013
S11337800F230B40083B9B0806339B00D3180433DC
S11337901B68FA1D1278110003220A40D200FF218F
S11337A091400A00D2431A4011003B689B01FF225A
S11337B01A40FB1D1B78180003230340DB009A40CA
S11337C00948FB1D1B781C000F232340083B9B0862
S11337D00A4306339B00C31804331A60C046BD462F
S11337E003B090BD00E100E000ED00E080B582B0E0
S11337F000AF78607B68013B0C4A934201D90123F6
S113380010E00B4B7A68013A5A6001235B420321B2
S11338101800FFF77DFF064B00229A60044B072235
S11338201A6000231800BD4602B080BDFFFFFF00F0
S113383010E000E080B500AF024B01221A64C046DC
S1133840BD4680BD00000C4080B500AF034B1B6833
S11338505A1C024B1A60C046BD4680BD8803002036
S113386080B584B000AF7860074B1B68FB60C0462E
S1133870054B1A68FB68D31A7A689A42F8D8C0468E
S1133880BD4604B080BDC0468803002080B500AFAB
S1133890FFF7D0FFFCF79AFD0200FA23990010000D
S11338A000F0F8FC03001800FFF7A0FF031E00D08F
S11338B0FEE7FCF793FFFCF72DFFFCF7FBFCFDF79D
S11338C085FC04210120FFF7FFF8134B01211800A8
S11338D0FEF756FF114B01211800FEF751FF00239C
S11338E0012208210220FFF701FB00230122092104
S11338F00220FFF7FBFA0023042201210020FFF736
S1133900F5FA00F0F1FB00F005F900F00DF90A20DA
S1133910FFF7A6FFF9E7C0460072040000020400A6
S113392080B582B000AF786039607B681A683B6804
S1133930DA401300012213401800BD4602B080BDD6
S113394080B582B000AF02003960FB1D1A70FB1D08
S11339501B78002B1FD0FB1D1B78012B19D0FB1DDE
S11339601B78022B13D0FB1D1B78032B0DD0FB1DE2
S11339701B78042B07D0FB1D1B78052B01D13F239B
S11339800AE0002308E0144B06E0144B04E0144B57
S113399002E0144B00E0144B3A6813410122134037
S11339A005D1124A124B11001800FEF775FBFB1DDE
S11339B01A781300DB009B189B001C330D4A9446B5
S11339C063443A6811001800FFF7AAFF03001800C7
S11339D0BD4602B080BDC046F0FF0000FF010000FC
S11339E0FFFF0000F87900007FF70000AE0300003D
S11339F0345D00000060004080B584B000AF3B4BF4
S1133A001B68032B02DD394B01221A60384B180066
S1133A1000F056FD0023FB6006E0364B180000F072
S1133A204FFDFB680133FB60FB68072BF5DD324B70
S1133A30180000F045FD0023BB6006E02D4B180084
S1133A4000F03EFDBB680133BB60BB68052BF5DDB0
S1133A502A4B180000F034FD244B1B68012B03D1C2
S1133A60274B180000F02CFD264B180000F028FD11
S1133A7000237B6006E01F4B180000F021FD7B68EB
S1133A8001337B607B68052BF5DD1F4B180000F0CC
S1133A9017FD164B1B68022B03D1194B180000F0BD
S1133AA00FFD184B180000F00BFD00233B6006E0EF
S1133AB0104B180000F004FD3B6801333B603B6889
S1133AC0052BF5DD114B180000F0FAFC074B1B68C1
S1133AD0032B03D10A4B180000F0F2FC0C4B180026
S1133AE000F0EEFCC046BD4604B080BD2C000020B2
S1133AF09C5D0000A05D0000A45D0000AC5D0000C2
S1133B00B85D0000BC5D0000C05D0000CC5D00003D
S1133B10D85D000080B500AF024B00221A70C04689
S1133B20BD4680BD4305002080B500AF08210220BA
S1133B30FFF706FF03005A1E9341DAB2474B1A708F
S1133B4009210220FFF7FCFE03005A1E9341DAB25A
S1133B50434B1A70434B1B78DBB2042B00D97AE039
S1133B609A00414BD3181B689F46FFF745FF3D4B16
S1133B7001221A706FE03A4B1B7801225340DBB2EA
S1133B80002B0ED0394B1B78002B0AD0374B002268
S1133B901A70374B1B685A1C354B1A60314B002284
S1133BA01A702E4B1B7801225340DBB2002B0DD030
S1133BB02F4B1B68012B09D12E4B1B78002B05D0F2
S1133BC02C4B00221A70274B02221A70234B1B78AD
S1133BD001225340DBB2002B0DD0254B1B68022B76
S1133BE009D1244B1B78002B05D0224B00221A70DC
S1133BF01C4B03221A70194B1B7801225340DBB271
S1133C00002B0DD01A4B1B68032B09D1194B1B78C1
S1133C10002B05D0174B00221A70124B04221A7085
S1133C200F4B1B78002B02D0104B01221A700B4B48
S1133C301B78002B0ED00F4B01221A700AE000F003
S1133C40E5F808E000F096FA05E00B4B180000F0E8
S1133C5037FC00E0C046C046BD4680BD400500209C
S1133C604705002043050020FC5D000033000020D0
S1133C702C00002032000020F85D000080B582B0E6
S1133C8000AF786039607B681A683B68DA401300DB
S1133C90012213401800BD4602B080BD80B582B039
S1133CA000AF02003960FB1D1A70FB1D1B78002B4E
S1133CB01FD0FB1D1B78012B19D0FB1D1B78022B79
S1133CC013D0FB1D1B78032B0DD0FB1D1B78042B7D
S1133CD007D0FB1D1B78052B01D13F230AE00023ED
S1133CE008E0144B06E0144B04E0144B02E0144BC0
S1133CF000E0144B3A6813410122134005D1124AE3
S1133D00124B11001800FEF7C7F9FB1D1A781300B7
S1133D10DB009B189B001C330D4A944663443A68AD
S1133D2011001800FFF7AAFF03001800BD4602B0F7
S1133D3080BDC046F0FF0000FF010000FFFF00004F
S1133D40F87900007FF70000AE030000105E000069
S1133D500060004080B582B000AF02003960FB1DF6
S1133D601A70FB1D1B78002B1FD0FB1D1B78012B29
S1133D7019D0FB1D1B78022B13D0FB1D1B78032BC2
S1133D800DD0FB1D1B78042B07D0FB1D1B78052BC6
S1133D9001D13F230AE0002308E0144B06E0144B52
S1133DA004E0144B02E0144B00E0144B3A68134156
S1133DB00122134005D1124A124B11001800FEF7DC
S1133DC06BF9FB1D1A781300DB009B189B000C3366
S1133DD00D4A944663443A6811001800FFF74EFFF9
S1133DE003001800BD4602B080BDC046F0FF0000CD
S1133DF0FF010000FFFF0000F87900007FF70000DA
S1133E00F7030000105E00000060004080B500AFC2
S1133E1008210220FFF742FF03005A1E9341DAB241
S1133E207B4B1A7009210220FFF738FF03005A1E4A
S1133E309341DAB2774B1A700A210220FFF78AFF06
S1133E4003005A1E9341DAB2734B1A700B210220FD
S1133E50FFF780FF03005A1E9341DAB26F4B1A70CA
S1133E606B4B1B7801225340DBB2002B05D06C4B0B
S1133E701B685A1C6A4B1A6002E0694B00221A60E4
S1133E80674B1B68462B02D1664B01221A70654BA7
S1133E901B78002B0ED0644B1B685A1C624B1A60B3
S1133EA0614B1B68642B05DD0020FCF755FA5E4B63
S1133EB000221A60564B1B7801225340DBB2002BC0
S1133EC028D05A4B1B78002B24D0564B00221A7052
S1133ED0534B00221A60554B00221A70544B1B7826
S1133EE05A1E9341DBB201225340DBB21A1C012358
S1133EF01340DAB24E4B1A704D4B1B7801225340DB
S1133F00DBB2002B03D00020FCF726FA02E00020ED
S1133F10FCF700FA3E4B1B78002B02D0434B0122E6
S1133F201A70444B1B68012B04D1434B1B685A1C69
S1133F30414B1A60404B1B68322B05DD3D4B002280
S1133F401A603D4B00221A603A4B1B68022B09D1C0
S1133F50394B1B68312B05DC384B01221A70364B68
S1133F6000221A60354B1B78002B0ED0344B1B6893
S1133F705A1C334B1A60324B1B68C82B05DD0120D9
S1133F80FCF7EAF92E4B00221A60224B1B7801221F
S1133F905340DBB2002B31D02A4B1B78002B2DD0A1
S1133FA0284B00221A70284B1B785A1E9341DBB20F
S1133FB001225340DBB21A1C01231340DAB2224B14
S1133FC01A701C4B1B685A1C1A4B1A60194B1B683D
S1133FD0032B05D1194B00221A70164B00221A60CC
S1133FE0194B1B7801225340DBB2002B03D0012074
S1133FF0FCF7B2F902E00120FCF78CF9054B1B78C1
S1134000002B02D00F4B01221A70C046BD4680BD62
S113401040050020470500204205002049050020F6
S1134020900300208C03002098030020320000201D
S11340303000002094030020A00300208D03002002
S11340409C030020330000203100002080B582B0A2
S113405000AF7860024B1800BD4602B080BDC04678
S1134060FFFF000080B584B000AFF860B9607A60EB
S1134070FB681800FFF7EAFF02007B68934205D94A
S1134080084A094B11001800FEF706F8FA68BB68E5
S11340901B01D3183C337A681A60C046BD4604B08D
S11340A080BDC046B5020000785E000080B582B0D5
S11340B000AF786039607B681800FFF7C7FF020023
S11340C03B68934205D9064A064B11001800FDF7D8
S11340D0E3FF7B683A68DA61C046BD4602B080BD42
S11340E03C040000785E000090B589B000AF142154
S11340F00C007B1818000C231A00002100F0D7F9DB
S113410021007B1803229A717B1801225A717B18B3
S113411016481A000121FFF75FF9144B9A6A134BF2
S113412013490A439A62114B64211800FFF7BEFF3A
S11341303B1D18000D231A00002100F0B8F93B1DA7
S113414001221A703B1D08229A703B1D074A190070
S11341501000FFF7C3F8054B002201211800FFF7F8
S113416081FFC046BD4609B090BDC0460000014075
S11341700200010080B500AFFCF796FA3D4B1A78B7
S11341803D4B1A703D4B1A783D4B1A700420FCF7D6
S11341902FFA03001A00374B1A700320FCF728FA91
S11341A003001A00354B1A70344B1B78002B18D0BF
S11341B0334B1B7801225340DBB2002B11D0314B1F
S11341C01B68632B06DC2F4B1A682F4B1B68D21815
S11341D02C4B1A602B4B1A682C4B1100180000F062
S11341E06FF9244B1B78002B18D0234B1B7801222A
S11341F05340DBB2002B11D0224B1B68002B06DD91
S1134200204B1A68204B1B68D21A1E4B1A601D4B98
S11342101A681E4B1100180000F052F9194B1B6864
S1134220322B14D004DC002B07D0192B0AD01DE04C
S11342304B2B11D0642B14D018E0124B1A68144B7A
S11342405A6413E00F4B1A68114B5A640EE00D4B7D
S11342501A680F4B5A6409E00A4B1A680C4B5A64EB
S113426004E0084B1A680A4B5A64C046C046BD466F
S113427080BDC046440500204105002045050020BE
S113428046050020A403002034000020945E0000B2
S113429000000140002243088B4274D303098B427F
S11342A05FD3030A8B4244D3030B8B4228D3030C02
S11342B08B420DD3FF22090212BA030C8B4202D3A4
S11342C01212090265D0030B8B4219D300E0090ACC
S11342D0C30B8B4201D3CB03C01A5241830B8B42D5
S11342E001D38B03C01A5241430B8B4201D34B03BE
S11342F0C01A5241030B8B4201D30B03C01A524123
S1134300C30A8B4201D3CB02C01A5241830A8B42A7
S113431001D38B02C01A5241430A8B4201D34B0290
S1134320C01A5241030A8B4201D30B02C01A5241F4
S1134330CDD2C3098B4201D3CB01C01A52418309A8
S11343408B4201D38B01C01A524143098B4201D3E2
S11343504B01C01A524103098B4201D30B01C01A0D
S11343605241C3088B4201D3CB00C01A5241830887
S11343708B4201D38B00C01A524143088B4201D3B4
S11343804B00C01A5241411A00D201465241104614
S11343907047FFE701B5002000F006F802BDC046F3
S11343A00029F7D076E770477047C0461C210123E7
S11343B01B04984201D3000C10391B0A984201D304
S11343C0000A08391B09984201D30009043902A2E2
S11343D0105C40187047C046040302020101010149
S11343E00000000000000000084B10B50400002B82
S11343F002D0002100E000BF054B1868836A002B3F
S113440000D098472000FCF754FEC046000000008E
S1134410A85E000070B500260C4D0D4C641BA41062
S1134420A64209D1002601F025F80A4D0A4C641B66
S1134430A410A64205D170BDB300EB5898470136CD
S1134440EEE7B300EB5898470136F2E70802002084
S113445008020020080200200C020020044B1B6804
S11344601B6A002B00D1034BEC3318687047C0461D
S1134470380000209C00002082B0002900D101A94E
S1134480101E06D0002B06D013780B601078431E44
S1134490984102B0704702204042FAE7002310B569
S11344A09A4200D110BDCC5CC4540133F8E7030038
S11344B01218934200D1704719700133F9E70000D4
S11344C00FB40B4B13B51C68002C05D0A369002B4B
S11344D002D1200000F0BEF905AB049AA1682000C7
S11344E0019300F091FB16BC08BC04B01847C04609
S11344F038000020F0B51D004F4B85B01E68040045
S11345000F000092002E05D0B369002B02D13000B9
S113451000F0A0F9494B9C4250D17468009B022BD7
S113452005D0012B00D984E0002D00DA81E02100C0
S1134530300000F021F9616B002908D023004433D6
S1134540994202D0300000F08FFA00236363002305
S1134550A3616360A3891B0603D52169300000F0C1
S113456083FAA389364A1340A381009B022B5AD0B5
S113457003AB02AA2100300000F000FAA38918431B
S1134580A081002D24D1029D280000F063FA01953A
S1134590071E42D1029B0193AB4239D10120404214
S11345A00223A2891343A3810023A360230047337A
S11345B0236023610123636105B0F0BD214B9C425C
S11345C001D1B468AAE7204B9C42A7D1F468A5E7BF
S11345D0002FD9D0B369002B02D1300000F03AF992
S11345E0009B012B03D1A389009A1A43A2810820BE
S11345F0A389276027616561184018D001201840FD
S11346000023984211D06D42A360A5611800D3E73E
S1134610019800F01FFA071EC0D08023A289019DD3
S11346201343A381D6E70020BAE7A560C4E7A060DE
S1134630C2E701204042BFE738000020D85F0000F5
S11346405CF3FFFFF85F0000B85F00000B1E04D0AE
S1134650FF2A04D98A2303608B3B180070470A7031
S11346600123FAE7F7B58A8905000C00130760D423
S11346704B68002B04DC0B6C002B01DC0020FEBD1E
S1134680E76A002FFAD000232E682B6080235B0199
S1134690216A1A4034D0606DA3895B0706D563682C
S11346A0C01A636B002B01D0236CC01A0200216A6C
S11346B000232800E76AB847A189431C06D12B6868
S11346C01D2B30D82B4ADA40D3072CD50023636046
S11346D023692360CB0405D5431C02D12B68002B2E
S11346E000D16065616B2E600029C7D0230044337C
S11346F0994202D0280000F0B7F900206063BEE7B9
S113470001232800B847431CC6D12B68002BC3D013
S11347101D2B01D0162B01D12E60AFE74023A289B7
S11347201343A381ABE740230B430120A381404201
S1134730A5E70F69002FA1D00B680F60DB1B019365
S11347400023920700D14B69A360019B002B00DC7E
S113475094E7019B3A00216A2800A66AB047002822
S113476003DC4023A2891343DFE7019B3F181B1A94
S11347700193EAE7010040200B6970B505000C00C5
S1134780002B01D1002070BD002804D08369002BC8
S113479001D100F05FF80B4B9C4209D16C680C22EC
S11347A0A35E002BEED021002800FFF75BFFEAE7B1
S11347B0054B9C4201D1AC68F1E7044B9C42EED11D
S11347C0EC68ECE7D85F0000F85F0000B85F000019
S11347D0002310B504000360436083608181436655
S11347E0C281036143618361190008225C30FFF7D1
S11347F05EFE054B24626362044BA362044BE362D6
S1134800044B236310BDC046455100006D510000A8
S1134810A5510000D151000010B5024900F08CF8F8
S113482010BDC0467947000070B568254A1E55433F
S11348300E002900743100F061F9041E08D0002133
S11348402A00016046600C30A0606832FFF72FFE3A
S1134850200070BD836913B50400002B28D1836444
S1134860C3640365134B144A1B6882620193984224
S113487001D101238361200000F020F86060200052
S113488000F01CF8A060200000F018F80022E0609E
S113489004216068FFF79CFF01220921A068FFF74B
S11348A097FF02221221E068FFF792FF0123A36120
S11348B013BDC046A85E000019480000F8B51C4BA3
S11348C007001E68B369002B02D13000FFF7C2FF56
S11348D04836B4687368013B04D53368002B07D0AD
S11348E03668F6E70C22A55E002D0DD06834F2E799
S11348F004213800FFF798FF30600028F0D10C2322
S113490004003B602000F8BD20000A4B656625606A
S11349106560A560E36025616561A56108222900E1
S11349205C30FFF7C4FD6563A563A564E564E9E74E
S1134930A85E00000100FFFFF7B504000700002691
S113494001914834002C01D13000FEBD6368A56894
S11349500093009B013B009301D52468F2E7AB89E7
S1134960012B08D90E22AB5E013304D02900380094
S1134970019B984706436835EBE7000070B50E00CD
S11349801D000E23C95E96B01400002907DA002327
S11349902B60B3891B0611D48023DB000FE06A4629
S11349A000F00EFD0028F2DBF022019B12021340FE
S11349B0054A9B185A4253412B60EDE740230020DF
S11349C0236016B070BDC04600E0FFFFF7B50226B5
S11349D08B8905000C00334206D023004733236043
S11349E0236101236361F7BD01AB6A46FFF7C6FF8C
S11349F000990700280000F081F8002808D10C2253
S1134A00A35E9A05EFD4032293431E43A681E4E7F1
S1134A100F4BAB628023A28920601343A381009BC8
S1134A2020616361019B002B0DD00E23E15E280001
S1134A3000F0D8FC002806D00322A38993431A006F
S1134A4001231343A381A0893843A081CBE7C04647
S1134A501948000010B5034B0100186800F04EF827
S1134A6010BDC0463800002070B50500002910D0E4
S1134A700C1F2368002B00DAE418280000F0E3FC84
S1134A801D4A1368002B05D163601460280000F0F0
S1134A90DBFC70BDA34209D9216860188342F3D1BD
S1134AA018685B6841182160EEE713005A68002A11
S1134AB001D0A242F9D919685818A0420BD1206834
S1134AC00918581819608242E0D1106852684118D8
S1134AD019605A60DAE7A04202D90C232B60D5E7AB
S1134AE021686018824203D110685268411821601D
S1134AF062605C60CAE7C046A8030020032370B567
S1134B00CD1C9D43083506000C2D1ED20C25A94250
S1134B101DD8300000F097FC254A146821000029B4
S1134B2019D1244C2368002B03D1300000F0F8FA8B
S1134B3020602900300000F0F3FA431C2BD10C2331
S1134B403000336000F080FC03E0002DDFDA0C233A
S1134B503360002070BD0B685B1B19D40B2B03D989
S1134B600B60CC18256003E04B688C420DD11360B8
S1134B70300000F069FC200007220B30231D904315
S1134B80C31AE7D05A42E250E4E763600C00EFE74F
S1134B900C004968C3E70323C41C9C43A042E1D032
S1134BA0211A300000F0BCFA431CDBD1C7E7C04631
S1134BB0A8030020AC030020936810B5013B936068
S1134BC0002B04DA9469A34207DB0A2905D0136891
S1134BD0581C10601970080010BD00F0FFFA0100A5
S1134BE0F9E7F8B506000F001400D518AC4201D15E
S1134BF0002007E021783A003000FFF7DDFF0134A0
S1134C00431CF3D1F8BD0000F0B59FB002900F0033
S1134C1016000593002805D083690493002B01D165
S1134C20FFF718FE7B4B9F425BD1029B5F68BB89F9
S1134C301B0762D53B69002B5FD0002306AC636180
S1134C40203363761033A37635002B78002B01D004
S1134C50252B5CD1AB1B04930CD032003900029895
S1134C60FFF7BFFF431C00D1C4E06269049B944674
S1134C70634463612B78002B00D1BBE00122002345
S1134C805242626002A9543252186E1C2360E360DF
S1134C90A3601370A365317805225F4800F0C8FB58
S1134CA0751C002835D12268D30604D5532302A9E4
S1134CB05B1820211970130704D5532302A95B182C
S1134CC02B21197033782A2B2CD0350000210A208F
S1134CD0E3682A786E1C303A092A64D900292ED058
S1134CE026E04E4B9F4202D1029B9F689FE74C4BAC
S1134CF09F429CD1029BDF6899E73900029800F03B
S1134D00D7FA002899D0012040421FB0F0BD0135E8
S1134D109BE7414B2268C01A01238340134323605D
S1134D202E00B8E7059B191D1B680591002B01DBBC
S1134D30099304E05B42E3600223134323602B786E
S1134D402E2B0AD16B782A2B35D1059B02351A1DDF
S1134D501B680592002B2BDB0793324E2978032224
S1134D60300000F065FB002806D04023801B834000
S1134D702268013513432360297806222A486E1CD1
S1134D80217600F055FB00283AD0284B002B25D182
S1134D900722059B07339343083305936369039AFA
S1134DA09B18636150E7434301219B18350090E74A
S1134DB001235B42D0E700230A201A000135636017
S1134DC029786E1C3039092903D9002BC5D00792E4
S1134DD0C3E74243012352183500F1E705AB0093C2
S1134DE03A00134B2100029800E000BF0390039B9C
S1134DF00133D3D1BB895B0600D584E70B9884E7E4
S1134E0005AB00933A000A4B2100029800F080F8A9
S1134E10ECE7C046D85F000018600000F85F0000AF
S1134E20B85F00001E600000226000000000000067
S1134E30E34B0000F7B5150001938A680B690090F5
S1134E400C00934200DA130022002B6043321278E4
S1134E50002A01D001332B6023689B0602D52B68FE
S1134E6002332B60062723681F4027D023004333D7
S1134E701B785A1E93412268920630D4220001996D
S1134E8043320098089EB047431C25D0062320686F
S1134E902A68E16803400025042B03D18D1AEB43F3
S1134EA0DB171D40A3682269934201DD9B1AED18AC
S1134EB00027BD4220D1002010E00137E3682A68B2
S1134EC09B1ABB42D2DD22000123193201990098BA
S1134ED0089EB047431CF0D101204042FEBD302063
S1134EE0E1184331087021005A1C45310978A21891
S1134EF0433202331170C1E7220001231A320199AF
S1134F000098089EB047431CE6D00137D1E7000063
S1134F10F0B589B004920A004332059303900292DB
S1134F200A7E0C000E9B6E2A00D186E01FD8632AED
S1134F3033D008D8002A00D18CE0582A4DD025005F
S1134F4042352A7030E0642A01D0692AF7D1196801
S1134F5025680A1D280629D508681A60002803DA7E
S1134F602D23029A404213706B4E0A274FE0732A96
S1134F7074D008D86F2A1FD0702AE0D12022096883
S1134F800A43226003E0752A16D0782AD7D122007A
S1134F90782145321170614E22E025001A684235AD
S1134FA0111D196013682B70012365E008681A60ED
S1134FB06906D3D500B2D1E719682568081D1860C1
S1134FC008682E0605D5544E08276F2A1BD00A27D9
S1134FD019E06D06F7D580B2F5E745314E4E0A70FB
S1134FE018682268011D00681960150621D5D307C9
S1134FF002D520231A4322601027002803D120233E
S113500022689A4322602300002243331A706368A3
S1135010A360002B58DB04222168914321600028FF
S113502054D1029D002B5AD02500337842352B7081
S113503055E05506DBD580B2D9E71A680D68101D16
S11350404969186013682E0601D5196002E06D06DF
S1135050FBD519800023029D23614FE01A68111DBE
S11350601960156800216268280000F0E1F9002841
S113507001D0401B6060636823610023029A1370AF
S11350803CE023692A0004990398059DA847431C22
S11350903ED023689B0715D4079BE068984239DA11
S11350A0180037E022000123193204990398059E61
S11350B0B047431C2CD00135E368079A9B1AAB42D6
S11350C0F0DCE9E70025F7E70028ADD0029D3900C0
S11350D0FFF766F9735C013D2B700028F7D1082FA8
S11350E009D12368DB0706D563682269934202DC91
S11350F03023013D2B70029B5B1B2361059B07AA98
S113510000932100049B0398FFF794FE431CB8D13D
S11351100120404209B0F0BD296000003A6000005F
S1135120002370B5064C050008002360FCF714F852
S1135130431C03D12368002B00D02B6070BDC046F4
S11351404C05002070B50C000E25495F00F07EF977
S1135150002803DB636D1B18636570BDA389024AD5
S11351601340A381F9E7C046FFEFFFFFF8B51F0026
S11351708B8905000C001600DB0505D50E23C95EDE
S11351800022022300F040F9A389054A28001340B5
S1135190A38132000E23E15E3B0000F075F8F8BDF8
S11351A0FFEFFFFF70B50C000E25495F00F02CF9EE
S11351B0A389421C03D1054A1340A38170BD8022F8
S11351C052011343A3816065F8E7C046FFEFFFFF78
S11351D010B50E23C95E00F0E1F810BDF8B5050066
S11351E00E001400002804D08369002B01D1FFF7BE
S11351F031FB224B9C422DD16C68A369A360A38927
S11352001B0731D52369002B2ED023682269F7B2FE
S1135210981A6369F6B2834205DC21002800FFF77F
S1135220ABFA002826D1A3680130013BA3602368B0
S11352305A1C22601F706369834204D0A389DB0770
S11352401AD50A2E18D121002800FFF795FA002854
S113525012D00FE00A4B9C4201D1AC68CDE7094B58
S11352609C42CAD1EC68C8E72100280000F020F86D
S11352700028CAD0012676423000F8BDD85F00006D
S1135280F85F0000B85F000070B505000800110069
S11352900022064C22601A00FBF77CFF431C03D15A
S11352A02368002B00D02B6070BDC0464C05002045
S11352B0364B70B51D6806000C00002D05D0AB6997
S11352C0002B02D12800FFF7C5FA314B9C420FD1C5
S11352D06C680C23E25E93B219072DD4D90611D45D
S11352E009230120336037331343A381404270BD47
S11352F0284B9C4201D1AC68EBE7274B9C42E8D198
S1135300EC68E6E75B0713D5616B002908D023003E
S11353104433994202D03000FFF7A6FB00236363B5
S11353202422A3899343A381002363602369236018
S11353300823A2891343A3812369002B0BD1A02145
S11353408022A389890092000B40934203D021005C
S11353503000FFF73BFB0123A289134011D0002347
S1135360A36063695B42A361002023698342BED1C9
S11353700C23E25E1306BAD540231343A3810138FC
S1135380B5E7920700D46369A360EDE73800002015
S1135390D85F0000F85F0000B85F0000002370B51C
S11353A0064C050008002360FBF77AFE431C03D17A
S11353B02368002B00D02B6070BDC0464C05002034
S11353C0002370B5064C0500080011002360FBF7AC
S11353D075FE431C03D12368002B00D02B6070BDE5
S11353E04C050020002370B5064C0500080023601E
S11353F0FBF772FE431C03D12368002B00D02B6003
S113540070BDC0464C05002070B5050008001100B1
S11354100022064C22601A00FBF767FE431C03D1EE
S11354202368002B00D02B6070BDC0464C050020C3
S1135430C9B28218904201D10020704703788B4290
S1135440FBD00130F6E770477047000070B50500E7
S1135450080011000022064C22601A00FBF750FEDF
S1135460431C03D12368002B00D02B6070BDC046C1
S11354704C050020F8B5C046F8BC08BC9E467047F1
S1135480F8B5C046F8BC08BC9E467047633A5C73E6
S1135490696C69636F6E6C6162735C73696D706C67
S11354A0696369747973747564696F5C76345F32A7
S11354B05C646576656C6F7065725C73646B735C59
S11354C06765636B6F5F73646B5F73756974655C49
S11354D076322E365C706C6174666F726D5C656DCD
S11354E06C69625C696E635C656D5F6770696F2E81
S11354F068000000020000000A0000000200000032
S11355000B0000000000000101000000000000008A
S113551007000000070503003D0000000100000033
S11355205368617270204C533031334237444830F1
S11355303320233100000000633A5C73696C6963B3
S11355406F6E6C6162735C73696D706C69636974AE
S11355507973747564696F5C76345F325C64657604
S1135560656C6F7065725C73646B735C6765636BA9
S11355706F5F73646B5F73756974655C76322E3626
S11355805C706C6174666F726D5C656D6C69625C95
S1135590696E635C656D5F6770696F2E68000000FB
S11355A0050000000000000040420F00050100005B
S11355B000000000000000000100010000040A0ACD
S11355C00403060608020000000000000E040E1F7B
S11355D0081F0C1F0E0E00001000010E0E0E0F0E01
S11355E0071F1F0E110E1C110111110E0F0E0F1E9D
S11355F01F11111111111F0E000E040002000100F1
S113560010000C0001040801060000000000000066
S1135610020000000000000C04060000000000006E
S113562000040A0A1E130904040404040000000010
S1135630110611080C0102101111060608000211CE
S1135640101111110901011111040809011B111193
S113565011111101041111111111100200080A0095
S1135660040001001000121E0100000104000000EB
S11356700000000002000000000000020408020014
S11356800000000000040A1F0108050202081504B6
S113569000000010190410040A0F01081111060675
S11356A0041F041010111101110101011104080556
S11356B00115131111111101041111110A1108021C
S11356C001081100080E0D0E160E02110D060C092C
S11356D0040B0D0E0F160D0E0711111111111F02DF
S11356E004081500000000000004000A0E04020073
S11356F002080E1F001F00081504080809100F04F3
S11357000E1E00000200080816110F01110F0F1DD4
S11357101F040803011515110F110F0E04111115A3
S1135720040A0402020800000010130119110711F1
S11357301304080504151311111913010211111191
S11357400A11080104100800000000000000001FF6
S113575010021500020815040600000413040410C6
S11357601F10110211100606041F0404151F110155
S11357701101011111040805011119110115051078
S1135780041111150A04020204080000001E11018C
S1135790111F021E11040803041511110F1E010E1E
S11357A002111115041E0402040800000000000088
S11357B00000000A0F19090004040404040006028E
S11357C01104021108111102110806040800020054
S11357D01511111109010111110409090111111106
S11357E00109091004110A15110401020808000036
S11357F000111111110102101104090504111111F4
S11358000110011012190A150A10020204080000FE
S1135810000000000004000A04181600080200003A
S1135820020006010E0E1F0E080E0E020E060002E6
S1135830100001040E110F0E071F010E110E0611A8
S11358401F11110E0116110F040E040A11041F0E6C
S1135850100E001F001E0F0E1E0E020E110E060962
S11358600E11110E0110010F0C16040A110E1F0C5B
S1135870040600000000000000000000000000001A
S11358800000000000000000000000000000000014
S11358900000000000000000000000000000000004
S11358A000000000000000000000000000000000F4
S11358B000000000000000000000000000000000E4
S11358C000000000000000000000000000000000D4
S11358D000000000000000000000000001000100C2
S11358E0433A2F53696C69636F6E4C6162732F5333
S11358F0696D706C696369747953747564696F2F29
S113590076345F322F646576656C6F7065722F73C1
S1135910646B732F6765636B6F5F73646B5F737521
S11359206974652F76322E362F706C6174666F72CF
S11359306D2F656D6C69622F7372632F656D5F6186
S1135940636D702E63000000633A5C73696C696375
S11359506F6E6C6162735C73696D706C696369749A
S11359607973747564696F5C76345F325C646576F0
S1135970656C6F7065725C73646B735C6765636B95
S11359806F5F73646B5F73756974655C76322E3612
S11359905C706C6174666F726D5C656D6C69625C81
S11359A0696E635C656D5F636F6D6D6F6E2E68000D
S11359B0633A5C73696C69636F6E6C6162735C7388
S11359C0696D706C696369747973747564696F5C0B
S11359D076345F325C646576656C6F7065725C7397
S11359E0646B735C6765636B6F5F73646B5F737524
S11359F06974655C76322E365C706C6174666F72A5
S1135A006D5C656D6C69625C696E635C656D5F633A
S1135A106D752E6800000000433A2F53696C69636A
S1135A206F6E4C6162732F53696D706C6963697436
S1135A307953747564696F2F76345F322F64657699
S1135A40656C6F7065722F73646B732F6765636B1E
S1135A506F5F73646B5F73756974652F76322E366E
S1135A602F706C6174666F726D2F656D6C69622F37
S1135A707372632F656D5F636D752E6300000000A4
S1135A80D4270000AE270000B4270000A827000098
S1135A90D4270000D4270000BA270000C427000040
S1135AA0D4270000D4270000CE270000582B000084
S1135AB0582B0000122B0000202B00002E2B00007E
S1135AC03C2B0000582B0000582B0000582B0000E2
S1135AD0582B00004A2B0000F02B0000AE2B0000D6
S1135AE0B42B0000C42B0000F02B0000F02B0000AE
S1135AF0D42B0000F02B0000F02B0000F02B000052
S1135B00E62B0000E42C0000D62C0000BA2C000088
S1135B10AC2C0000C82C0000633A5C73696C6963A8
S1135B206F6E6C6162735C73696D706C69636974C8
S1135B307973747564696F5C76345F325C6465761E
S1135B40656C6F7065725C73646B735C6765636BC3
S1135B506F5F73646B5F73756974655C76322E3640
S1135B605C706C6174666F726D5C656D6C69625CAF
S1135B70696E635C656D5F6770696F2E6800000015
S1135B80433A2F53696C69636F6E4C6162732F5390
S1135B90696D706C696369747953747564696F2F86
S1135BA076345F322F646576656C6F7065722F731F
S1135BB0646B732F6765636B6F5F73646B5F73757F
S1135BC06974652F76322E362F706C6174666F722D
S1135BD06D2F656D6C69622F7372632F656D5F67DE
S1135BE070696F2E63000000433A2F53696C696338
S1135BF06F6E4C6162732F53696D706C6963697465
S1135C007953747564696F2F76345F322F646576C7
S1135C10656C6F7065722F73646B732F6765636B4C
S1135C206F5F73646B5F73756974652F76322E369C
S1135C302F706C6174666F726D2F656D6C69622F65
S1135C407372632F656D5F7072732E6300000000C2
S1135C50433A2F53696C69636F6E4C6162732F53BF
S1135C60696D706C696369747953747564696F2FB5
S1135C7076345F322F646576656C6F7065722F734E
S1135C80646B732F6765636B6F5F73646B5F7375AE
S1135C906974652F76322E362F706C6174666F725C
S1135CA06D2F656D6C69622F7372632F656D5F7202
S1135CB074632E63000000002E2E2F656D6C6962E4
S1135CC02F656D5F74696D65722E6300433A2F53BF
S1135CD0696C69636F6E4C6162732F53696D706C8C
S1135CE0696369747953747564696F2F76345F32AC
